:020000040000FA
:1000000010030020D9000000E7000000E900000014
:1000100000000000000000000000000000000000E0
:10002000000000000000000000000000EB000000E5
:100030000000000000000000ED000000F1160000CC
:10004000F1000000F1000000F1000000F1000000EC
:10005000F1000000F1000000F1000000F1000000DC
:10006000F1000000F1000000F1000000F1000000CC
:10007000F1000000F1000000F1000000F1000000BC
:10008000F1000000F1000000F1000000000000009D
:10009000F1000000F1000000F1000000F10000009C
:1000A000F1000000F1000000F10000005517000011
:1000B00081170000F1000000F1000000F1000000D5
:1000C0000448854600F022FB00480047113200003A
:1000D000C046C04610030020064908688546064809
:1000E000804706480047FEE7FEE7FEE7FEE7FEE73B
:1000F000FEE700000000000019170000C10000002A
:1001000030B50B46014600202022012409E00D46AF
:10011000D5409D4205D31D469540491B2546954037
:1001200040191546521E002DF1DC30BD70B500247B
:100130002546002801DA01244042002901DA012580
:100140004942FFF7DDFFAC4200D04042002C00D016
:10015000494270BD10B5202A04DB0146203A914087
:10016000002010BD914020239C1A0346E340194310
:10017000904010BD03460B439B0703D009E008C91C
:10018000121F08C0042AFAD203E00B780370401C47
:10019000491C521EF9D27047D2B201E00270401CD5
:1001A000491EFBD270470022F6E710B513460A46F7
:1001B00004461946FFF7F0FF204610BD30B504464F
:1001C0000020034600E05B1C934203D2E05CCD5C60
:1001D000401BF8D030BDF8B502464A40D40F42006B
:1001E0004B0052085B089A4202D20246084611466A
:1001F0004A0023D0C30D4A00DDB2120EAD1A202DE5
:1002000035DA49020126490AF6058A19002C00D080
:10021000524220214F1B1146B9402A411018C20DED
:100220009A4221D0002C17D0012D08DCDA05801A63
:10023000D20F8019D207DBB200F0D0F9F8BDDA0591
:10024000801A012340001B06C01880185A428018EB
:10025000CA0F1043490007E04908C2071143DA05F5
:10026000801A80194008801800F0B0F9F8BD6100CC
:100270000122511A001BF7E70122D2075140AAE7D9
:100280000122D2075040A6E7024670B54A40D30F7C
:10029000DB0740002DD04A002AD0010E140E0002C8
:1002A00012020919400A520A8418E501044654430F
:1002B000000A120A2E045043A4194219200CC54307
:1002C000AA18120C0125AD03521C521912047F39D1
:1002D000240400D0521C104301D44000491EC2B275
:1002E0000C06C0092018401C4008802A02D003E0F8
:1002F000002070BD40084000002900DA00201843AB
:1003000070BD70B502464A40D50F40004A00ED0767
:1003100040085208002814D0002A12D0C40DD30D72
:1003200041020120C0055202490A520AE41A091882
:1003300012187D34914201D3641C00E04900002C66
:1003400001DA002070BD0023914201D3891A0343D2
:10035000400849000028F7D100290AD0914202D173
:100360000121C90705E0914201D2012101E00121EB
:10037000C943E005C018401900F028F970BD00001D
:10038000F0B507460846584087B0C00F04904800B3
:100390000E46590040084908BC1A884105D2384623
:1003A00031461E4617460B46024658004008104389
:1003B0004DD0300D039040055900400D490D05907A
:1003C000401A0290402873DA18030121000B090536
:1003D0000843019004980092002806D01146019A23
:1003E00049420020904100910190029840210A1A50
:1003F00001990098FFF7AEFE05460C466B4607CB09
:1004000000F0D1F8C0197141039A0E0D0023D717DF
:1004100056401A467A40164344D0049A002A2DD0FA
:10042000029A012A039A15DC1205C01A914101268D
:100430003605001C7141D20F059ED2070093019230
:1004400002962A46234600F00FF907B0F0BD384661
:100450003146FAE71605234A0F46B218C01AB741CB
:1004600001210905001C4F4100187F411146181851
:100470007941E20F10436D19644113E0E2076D0802
:1004800015436408C2071443039A01261205C01AD3
:1004900091413605001C7141CE07400830434908A0
:1004A000C01851412A46234600F0D1F8CDE7FFE7B6
:1004B000049801224000C117121A00238B410498AE
:1004C0003146C417381AA141EEE730B40124E407DD
:1004D000634030BC54E730B40124E407614030BCD1
:1004E0004EE700000000E0FF10B500229623114601
:1004F00000F074F810BD410040020122400AD2050C
:10050000090E80187F2901DA00207047962903DC44
:100510009622511AC84070479639884070470000AB
:100520004A0009030123090B1B051943094B10B5A8
:10053000520D9A4201DA002010BD064B34339A4224
:1005400003DC9A1A00F01EF810BD034951188840C8
:1005500010BD0000FF030000CDFBFFFFC20FD2075C
:10056000400040080BD0C10D0723DB01C918400231
:100570000905400A1143C208400711437047002093
:100580000146704710B5202A04DB0846203AD040C7
:10059000002110BD0B46D340D0402024A21A914028
:1005A0000843194610BD10B5202A06DBCB170846B4
:1005B000203A1041C1170B4306E00B461341D040CF
:1005C0002024A21A91400843194610BD002904DADC
:1005D000401C490001D140084000704770B400241D
:1005E000050C05D11024000402D1002921D01124CA
:1005F000050E01D100020834050F01D10001241DB0
:10060000850F01D18000A41C002801DB4000641C80
:10061000002908D020252E1B0D46F540A14000D012
:1006200001212943084301061B1B000ADB1D02D5DB
:10063000002070BC7047DB05181880180029F8DA14
:10064000401C4900F5D170BC40084000704710B50F
:10065000002B08DA0024401C614192185B411A43C8
:1006600001D14008400010BDF0B51FB482B005466E
:100670000C0003D0084601F065FB02E001F062FBCC
:1006800020300246009021462846FFF763FD049B78
:10069000059A04460F4618431143084314D01846E0
:1006A00010431BD0009840210A1A18460599FFF7FD
:1006B00069FF05460E46009A05990498FFF74AFD22
:1006C000084305D0012004E02046394607B0F0BDBC
:1006D0000020C11705430E432C43374300990E9861
:1006E0006305401A7905E40A00220C43FD0A0A302A
:1006F00002D500200146E9E70105101969410C9C6B
:100700000D9D00196941FFF7A2FFDFE7064C0125A7
:10071000064E05E0E36807CC2B430C3C98471034A9
:10072000B442F7D3FFF7D0FC94350000B435000095
:1007300070B502460B4625490846824201D88342DD
:1007400001D9802070BD00BF2148006820263040BC
:10075000002804D008464E1EB1B20028F4D100296A
:1007600001D18020EEE70020194EB062304640688B
:1007700085B23046006884B202202043154E3043D3
:10078000134E306015E011490020107000BF104872
:10079000006820263040002804D008464E1EB1B222
:1007A0000028F4D1002901D18020CBE7FF32FF32AD
:1007B00002329A42E7D907482043054E3060054887
:1007C000284370603046406AC0B2BBE7FFFF0000BC
:1007D0000020024000005A5A0148024988607047D0
:1007E00000005A5A0020024070B504460C4884426A
:1007F00000DC04E0FF217D310AA001F06CFB114810
:10080000806885B22046E117490F0918C9100122F6
:100810008A400D49294391430A4A9160002070BDE6
:10082000FF0100002E2E5C6D63755F6C69625C7366
:1008300072635C637733326C3035325F666C617340
:10084000682E63000020024000005A5AF0B587B0BD
:1008500004460D46002102910391A54202D9802051
:1008600007B0F0BD1A48844201D8854201D98020E2
:10087000F6E711E02001020C049201260027304621
:100880003946049AFFF766FC029A1043039B19430A
:100890000391029030032418AC42EBD90023029953
:1008A000594003985840014301D18020D8E702A85D
:1008B00001900848806880B20590019801880598E9
:1008C000884305490843034988600020C8E70000C1
:1008D000FFFF00000020024000005A5A10B50446F5
:1008E000002C03D0012C01D0022C00D103E03421D4
:1008F00007A001F0F0FA0E48006B02218843801C2B
:100900000B4908630B4820430B49486010BD0000A9
:100910002E2E5C6D63755F6C69625C7372635C63E1
:100920007733326C3035325F666C6173682E6300EA
:100930000000014000005A5A0020024070B50446F1
:100940000C48844200DC03E07A210BA001F0C3FADA
:100950001148806885B22046E117490F0918CA106E
:10096000012191400D4A2A4311430B4A9160002016
:1009700070BD0000FF0100002E2E5C6D63755F6C82
:1009800069625C7372635C637733326C3035325FFB
:10099000666C6173682E63000020024000005A5AA2
:1009A000F0B587B004460D46002102910391AC4298
:1009B00002D9802007B0F0BD1A48844201D8854290
:1009C00001D98020F6E711E02001020C04920126F3
:1009D000002730463946049AFFF7BCFB029A1043C1
:1009E000039B19430391029030032418AC42EBD9C6
:1009F00000230298584003995940084301D18020B0
:100A0000D8E702A901910848806880B2059007499B
:100A10000598084301990988084303498860002024
:100A2000C8E70000FFFF00000020024000005A5A03
:100A3000F0B503460C46254998184F1CB84201D919
:100A40008020F0BD00BF22480068202738400028E1
:100A500004D008464F1EB9B20028F4D1002901D1B4
:100A60008020EEE700201A4FB8623846406886B210
:100A70003846006885B201202843164F3843144F8A
:100A8000386016E020781870104900BF10480068E0
:100A900020273840002804D008464F1EB9B200284D
:100AA000F4D1002901D18020CBE75B1C501E82B21B
:100AB000641C002AE6D107482843054F38600548E2
:100AC000304378603846406AC0B2BAE7FFFF0000A2
:100AD0000020024000005A5A10B5044621686068A0
:100AE00000F0B7FA10BD0000FEB5044600200090EB
:100AF000019002900026002507E00121A94020680E
:100B00000840002800D002E06D1C102DF5D300BF76
:100B1000102D00D3FEBD00BF1721C9066068401824
:100B2000002806D001218902401A09D0401A15D1A7
:100B30000DE0F948006B10210843F74908630FE006
:100B4000F548006B20210843F349086308E0F248A8
:100B5000006B40210843F049086301E0002001E0F8
:100B600000BF0120002800D1D4E7207A030001F063
:100B700000F90A063264AAF7F5F4F3F2F1F06068BE
:100B8000C069216888436168C8616068006821683D
:100B90000843616808606068406A2168884361684A
:100BA00048626068806A2168884361688862082DAD
:100BB00007D2606880690F21A94088436168886115
:100BC00008E060684069294608390F228A4090434E
:100BD00061684861DBE16068C069216888436168D9
:100BE000C86160680068216888436168086060685F
:100BF000406821688843616848606068406A21688D
:100C00008843616848626068806A216888436168D7
:100C10008862082D07D2606880690F21A940884347
:100C20006168886108E060684069294608390F22D8
:100C30008A40904361684861A9E16068C0692168A1
:100C400088436168C861606800682168884361689A
:100C500008606068406821680843616848606068AF
:100C6000406A21688843616848626068806A2168D8
:100C7000884361688862082D10D2606880690F21FE
:100C8000A94088436168886160688069217C490760
:100C9000490FA94008436168886113E060684069B2
:100CA000294608390F228A40904361684861207CB8
:100CB0004007400F29460839884061684969084360
:100CC0006168486163E16068C06921688843616860
:100CD000C86160680068216888436168086060686E
:100CE000406821688843616848606068406A21689C
:100CF0008843616848626068806A216888436168E7
:100D00008862082D10D2606880690F21A94088434D
:100D10006168886160688069217C4907490FA94042
:100D200008436168886113E06068416928460838B3
:100D30000F228240914360684161207C4007400F50
:100D400029460839884061684969084361684861F3
:100D50001DE11BE1EDE0BCE08EE086E046E0FFE750
:100D60006068C069216888436168C861606800681C
:100D700021688843616808606068406821680843AA
:100D8000616848606068406A2168884361684862B9
:100D90006068806A2168884361688862082D10D283
:100DA000606880690F21A940884361688861606834
:100DB0008069217C4907490FA9400843616888611F
:100DC00013E060684069294608390F228A40904341
:100DD00061684861207C4007400F294608398840F7
:100DE00061684969084361684861D0E06068C0692A
:100DF000216888436168C8616068006821680843A9
:100E0000616808606068406A216888436168486278
:100E10006068806A2168884361688862082D10D202
:100E2000606880690F21A9408843616888616068B3
:100E30008069217C4907490FA9400843616888619E
:100E400012E0606840692A46083A0F2191408843C1
:100E500061684861207C4007400F11468840616806
:100E6000496908436168486191E06068C069216828
:100E700008436168C8618AE06068C0692168884386
:100E80006168C8616068006821680843616808603B
:100E90006068406A21680843616848626068806AE7
:100EA0002168884361688862082D07D2606880697C
:100EB0000F21A94088436168886108E06068416942
:100EC0002A46083A0F20904081436068416101261C
:100ED0005DE06068C069216888436168C8616068D6
:100EE000006821680843616808606068406A21689A
:100EF0008843616848626068806A21680843616865
:100F00008862082D0AD2606880690F21A940884351
:100F1000616888610BE00000000001406068406982
:100F2000294608390F228A409043616848610126AA
:100F30002DE06068C069216888436168C8616068A5
:100F4000006821680843616808606068406A216839
:100F50000843616848626068806A21680843616884
:100F60008862082D07D2606880690F21A9408843F4
:100F70006168886108E0606841692A46083A0F2084
:100F80009040814360684161012600E0C2E500BFF6
:100F9000607A002802D002280ED106E0606800695D
:100FA000216808436168086107E06068006921689A
:100FB00088436168086100E0ACE500BF002E09D0FD
:100FC000A8000E490858002800D0A3E5A9000B4A44
:100FD000E0685050207A012802D0207A02280BD1F4
:100FE0002069002804D0064881682046884703E02D
:100FF0000348C1682046884700BF8BE5A800002051
:101000000434000010B50446228891B2606800F0F4
:10101000ADF8002801D0012010BD0020FCE710B57C
:101020000446228891B20022606800F0AAF810BD40
:1010300010B50446228891B20122606800F0A1F840
:1010400010BD10B50446228891B2606800F097F890
:1010500010BDC2690A43C26102680A4302600269A4
:101060008A430261C2688A43C260426A8A4342621A
:10107000826A8A438262C26A8A43C262026B8A437C
:10108000026342688A43426070474A68002A04D17A
:10109000C2690B681A43C26167E0C2690B689A4370
:1010A000C26110234A681A40102A4ED102680B68A8
:1010B0001A4302604A68112A07D102690B681A4371
:1010C0000261C2680B689A43C2604A68122A07D15B
:1010D000C2680B681A43C26002690B689A430261D6
:1010E000426A0B689A434262826A0B689A43826240
:1010F000C26A0B689A43C262026B0B689A4302632E
:1011000081238A681A40812A03D1426A0B681A43F4
:10111000426282238A681A40822A03D1826A0B685B
:101120001A43826284238A681A40842A03D1C26ADD
:101130000B681A43C26288238A681A40882A14D12D
:10114000026B0B681A4302630FE002680B689A4354
:1011500002604A68202A04D142680B689A434260C0
:1011600003E042680B681A43426070470246106D04
:101170000840002801D0012070470020FCE70166EC
:101180007047012A01D1C16500E081657047000008
:1011900001480068704700000000002070B5054657
:1011A000154801787D20C000FEF7AAFF06463146AB
:1011B0002846FEF7A5FF0446601E1049884201D963
:1011C00001200CE0601E0E4948610321081F00F059
:1011D000FBFD00200A4988610720086100200028E3
:1011E00000D070BD0021481E00F0EEFD0020054932
:1011F000086000BFF5E7000008000020FFFFFF00C7
:1012000000E000E00400002030B502460B4600205C
:1012100013E01478521C604000210CE0802404404C
:10122000002C04D0440007256C40E0B201E04406E5
:10123000200E4C1CE1B20829F0DB1C465D1EEBB20F
:10124000002CE6D130BD000010B50446224602490C
:10125000024800F033F810BD00440040A400002014
:1012600070B506460D461446012D02D0022D14D14C
:101270000DE0012C0ADB0F2C08DC094881682046B0
:10128000884722460121304600F056F806E0224603
:101290008221304600F050F800E000BF00BF70BD72
:1012A0007835000010B5044622460249024800F095
:1012B00005F810BD00380140A1000020F8B5044633
:1012C0000F4615462078030000F053FD050409166B
:1012D0001A1E3100552D01D1012020702AE0AA2DBF
:1012E00002D10220207006E0552D02D1012020708D
:1012F00001E0002020701DE065700320207019E0DF
:10130000A5700420207015E0617868460170A1780E
:1013100041700221FFF778FF0646AE4204D1A27861
:1013200061783846FFF79CFF0020207002E0002023
:10133000207000BF00BFF8BDFEB506460C4615463E
:1013400068460472457255210170AA21417084706B
:10135000C570022102A8FFF757FF694608710348CC
:101360000522436830469847FEBD0000383500002E
:1013700070B504460D460D482040002802D1002CCF
:1013800000D004E04D21C90009A000F0A4FD002D0B
:1013900005D00F48806B20430D49886304E00C485A
:1013A000806BA0430A49886370BD00000146FFFFBF
:1013B0002E2E5C6D63755F6C69625C7372635C6337
:1013C0007733326C3035325F7263632E6300000016
:1013D0000000014070B504460D460D48204000282D
:1013E00002D1002C00D004E00521C90109A000F0C1
:1013F00072FD002D05D00F48406B20430D49486316
:1014000004E00C48406BA0430A49486370BD0000EB
:1014100069C0FFFF2E2E5C6D63755F6C69625C7343
:1014200072635C637733326C3035325F7263632E84
:10143000630000000000014010B50446002C0DD0F0
:10144000202C0BD0402C09D0602C07D0802C05D04C
:10145000A02C03D0C02C01D0E02C00D103E034211B
:1014600006A000F038FD0D4800680D4908400D4900
:10147000401820430949086010BD00002E2E5C6D05
:1014800063755F6C69625C7372635C637733326C43
:101490003035325F7263632E63000000000001404C
:1014A0001FFF000000005A5A70B504461B4D062C61
:1014B0000FD0082C0DD0092C0BD0052C09D00B2CEB
:1014C00007D00C2C05D00D2C03D00E2C01D00F2CE6
:1014D00000D104E0FF21103111A000F0FCFCE0027B
:1014E0001749098808431749886108464068164922
:1014F00008431449486000BF124880690121C903AC
:101500000840884204D02846691E8DB20028F3D1D5
:10151000002D01D1012070BD0020FCE7FFFF00007D
:101520002E2E5C6D63755F6C69625C7372635C63C5
:101530007733326C3035325F7263632E63000000A4
:10154000000A10000000014001005A5A10B504467C
:10155000002C0DD0202C0BD0402C09D0602C07D0B3
:10156000802C05D0A02C03D0C02C01D0E02C00D1C1
:1015700003E03E2106A000F0AEFC0D4800680D49D6
:1015800008400D49401820430949086010BD00007B
:101590002E2E5C6D63755F6C69625C7372635C6355
:1015A0007733326C3035325F7263632E6300000034
:1015B00000000140E7FF000000005A5A70B50446E1
:1015C000002C05D0012C03D0032C01D0042C00D119
:1015D00004E0FF21E9310EA000F07DFC1448006812
:1015E00080B214494018C008C00020431049086068
:1015F00000F022F8054600F05FF80D48006840074B
:10160000400FA04201D0012070BD0020FCE7000087
:101610002E2E5C6D63755F6C69625C7372635C63D4
:101620007733326C3035325F7263632E63000000B3
:101630000000014000005A5A70B500240026002521
:10164000184800684607760F164880694004050F61
:10165000002E06D0012E0CD0032E0CD0042E0FD15C
:101660000BE0A800104A11581048FEF749FD044647
:101670000EE00F4C0CE00F4C0AE00124E40307E0FD
:10168000A800094A11580948FEF73AFD044600BF70
:1016900000BF044800680006410F2046C8400446C9
:1016A000204670BD00000140C4330000006CDC0225
:1016B0000024F40020800000014908607047000009
:1016C0000C00002070B50446FFF762FD0646254673
:1016D000681C002802D0054800782D1800BFFFF7CD
:1016E00057FD801BA842FAD370BD000008000020FF
:1016F00003480068034909784018014908607047A9
:1017000000000020080000200148024908607047DE
:1017100000127A000C00002000B5FFF7F5FF0B491E
:1017200009884805400D0A498969C90AC902014367
:10173000074A9161054949888805800D1146096A63
:10174000890A89020143116200BD0000000A1000ED
:101750000000014010B50421084800F09FF800285F
:101760000AD0064800F094FA04460421034800F029
:101770001DF82046FFF796FD10BD0000003801401F
:1017800010B50421084800F089F800280AD006485E
:1017900000F07EFA04460421034800F007F82046D2
:1017A000FFF752FD10BD00000044004070B5044634
:1017B0000D460F48844205D00E48844202D00E48A0
:1017C000844200D104E0FF2158310CA000F083FBDB
:1017D00012482840002802D1002D00D004E0FF214B
:1017E000593106A000F077FB206AA843206270BD43
:1017F0000038014000440040004800402E2E5C6D3F
:1018000063755F6C69625C7372635C637733326CBF
:101810003035325F756172742E630000A1F10000F3
:1018200070B504460D461248844205D011488442E2
:1018300002D01148844200D104E0FF2176310FA08C
:1018400000F049FB0F2000032840002802D1002DA2
:1018500000D004E0FF21773108A000F03CFBE069F4
:101860002840002801D0012070BD0020FCE70000C6
:101870000038014000440040004800402E2E5C6DBE
:1018800063755F6C69625C7372635C637733326C3F
:101890003035325F756172742E63000070B5044696
:1018A0000D461148844205D01048844202D01048A9
:1018B000844200D104E0FF213C310EA000F00BFB7C
:1018C00014482840002802D1002D00D004E0FF2158
:1018D0003D3108A000F0FFFAE0692840002801D05F
:1018E000012070BD0020FCE70038014000440040AA
:1018F000004800402E2E5C6D63755F6C69625C73FE
:1019000072635C637733326C3035325F7561727449
:101910002E630000A0F1000070B504460D46164687
:101920001848844205D01848844202D0174884429F
:1019300000D104E0FF21173115A000F0CCFA1C48BB
:101940002840002802D1002D00D004E0FF211831EA
:101950000FA000F0C0FA002E01D0012E00D104E04B
:10196000FF2119310AA000F0B6FA002E03D0A068BA
:101970002843A06004E0A068E94389B20840A06061
:1019800070BD0000003801400044004000480040A5
:101990002E2E5C6D63755F6C69625C7372635C6351
:1019A0007733326C3035325F756172742E630000AC
:1019B000A0F10000F0B589B005460C4600260020D5
:1019C00008900027A248854205D0A248854202D04F
:1019D000A148854200D103E07721A0A000F07BFA66
:1019E0002068002804D0A5492068884200D803E078
:1019F00078219AA000F06FFAA08800280DD0A08866
:101A000001214902884208D0A0884900884204D0B8
:101A1000A08803214902884200D103E079218FA0E8
:101A200000F059FAE088002809D0E0880121490235
:101A3000884204D0E08803210902884200D103E0F3
:101A40007A2186A000F047FAA068002804D08C49CB
:101A5000A068884200D803E07B2180A000F03BFA18
:101A6000A089002804D0A089FF210131884200D13B
:101A700003E07C2179A000F02EFAE089002805D04F
:101A8000E089202802D0E089102800D103E07D21E0
:101A900072A000F020FA208A002808D0208A0828A6
:101AA00005D0208A0C2802D0208A042800D103E027
:101AB0007E216AA000F00FFA608A7249084000286F
:101AC00003D1608A002800D003E07F2163A000F0EA
:101AD00002FAA08A002808D0A08A082805D0A08A87
:101AE000042802D0A08A0C2800D103E080215BA04A
:101AF00000F0F1F9A088A1890843E1890843218A0F
:101B00000843618A084329685F4A114008432860F6
:101B1000E088A18A08436968C32292009143084380
:101B20006860A08800282FD121680801FEF7DCFC3E
:101B30000790A068FEF7D8FC06900799FEF7E1FB36
:101B400007463846FEF7D7FC86B23046FEF7CCFC97
:101B500039460190FEF794FB8321C9050290FEF7F8
:101B600093FB0390FEF7FAFC0022484B059104908A
:101B7000FEF706FC07910690FEF7D2FC80B20890B3
:101B8000EE600898286160E0A0880121490288423F
:101B90001BD12168C800FEF7A7FC0290A068FEF7E1
:101BA000A3FC01900299FEF7ACFB0390FEF7D6FC74
:101BB0000022364B05910490FEF7E2FB0791069058
:101BC000FEF7AEFC86B2EE603FE0A08801218902FC
:101BD00088421BD121688800FEF786FC0290A0682D
:101BE000FEF782FC01900299FEF78BFB0390FEF753
:101BF000B5FC0022254B05910490FEF7C1FB07912F
:101C00000690FEF78DFC86B2EE601EE02068FEF7BF
:101C10006BFC0290A068FEF767FC8721C905009065
:101C2000FEF732FB01900299FEF76BFB0390FEF783
:101C300095FC0022154B05910490FEF7A1FB07913E
:101C40000690FEF76DFC86B2EE6009B0F0BD0000B4
:101C50000038014000440040004800402E2E5C6DDA
:101C600063755F6C69625C7372635C637733326C5B
:101C70003035325F756172742E630000001BB7004F
:101C8000006CDC02FCFF0000C0F8FFFF0000E03F3A
:101C900010B504460848844205D00848844202D062
:101CA0000748844200D103E0642106A000F013F944
:101CB000606AC0B210BD000000380140004400401E
:101CC000004800402E2E5C6D63755F6C69625C732A
:101CD00072635C637733326C3035325F7561727476
:101CE0002E63000070B504460D460B48844205D0B3
:101CF0000A48844202D00A48844200D103E04521C8
:101D000008A000F0E8F8FF2D00DC03E0462105A064
:101D100000F0E1F8A56270BD0038014000440040C9
:101D2000004800402E2E5C6D63755F6C69625C73C9
:101D300072635C637733326C3035325F7561727415
:101D40002E6300002021020C01D010211046020A4F
:101D500001D010460839020901D01046091F820837
:101D600001D01046891E420801D0881E7047081A0B
:101D7000704730B47446641E2578641CAB4204D3AB
:101D8000635D5B00E31830BC18471D46F8E70000B0
:101D9000002805DBC206D20E01219140014A1160E4
:101DA0007047000080E200E0002809DB00BF00BFB0
:101DB000C206D20E01219140024A116000BF00BF4D
:101DC0007047000000E100E010B5002819DB1A4A56
:101DD00003231B02D21883089B00D2588307DC0E12
:101DE000FF23A3409A438B071B0E8407E40EA340F6
:101DF0001A43114B032424021B198408A4001A510E
:101E000018E00E4A03071B0F083B9B089B00D258A3
:101E10008307DC0EFF23A3409A438B071B0E840726
:101E2000E40EA3401A43054B0407240F083CA40802
:101E3000A4001A5110BD000000E100E01CED00E01C
:101E400010B5002819DB1A4A03231B02D218830895
:101E50009B00D2588307DC0EFF23A3409A438B07D5
:101E60001B0E8407E40EA3401A43114B03242402E3
:101E70001B198408A4001A5118E00E4A03071B0F0F
:101E8000083B9B089B00D2588307DC0EFF23A3402E
:101E90009A438B071B0E8407E40EA3401A43054B9D
:101EA0000407240F083CA408A4001A5110BD000028
:101EB00000E100E01CED00E002E008C8121F08C1CC
:101EC000002AFAD170477047002001E001C1121FBB
:101ED000002AFBD1704770470279002A01D0012205
:101EE00000E000220A7102780A7042784A70827813
:101EF0008A70C278CA70704770B504460D4629468C
:101F00002046FEF74DFD29462046FEF711FC2946E6
:101F10002046FEF79BFC70BD70B504460D46214679
:101F20000B31601CFEF73CFD0A222946601CFEF7BF
:101F30007FFD21460B31601CFEF788FC70BD10B59B
:101F4000044605212046FEF72EF910BD10B50446C3
:101F50002046FFF7B7FB10BD30B587B004467D21A2
:101F6000C9002046FEF7CCF806907D21C900204626
:101F7000FEF7C6F8059100F047F804901E48806906
:101F800003901D4840690290FFF756FB05461B4928
:101F9000FEF7B6F801900199614308460299FEF7F1
:101FA000AFF8029A03988018451A11462846FEF7A2
:101FB000A7F800910199059848430499884202D9ED
:101FC0000698401C069015E000F01EF80499401A8F
:101FD0000699884206D1084880690099884209D24A
:101FE00007B030BD00F010F80499401A06998842F5
:101FF00000D3F5E7E8E7000000E000E040420F0012
:1020000010B5FFF719FB10BD0148006870470000CC
:102010000000002010B50120FEF760FC0020FFF753
:102020000BFA0020FFF792FA0620FFF73DFA002096
:10203000FFF7C4FAFFF700FB0446FFF73DFB10BDB6
:1020400010B5FFF7F9FA0446FFF7A8F810BD000035
:1020500010B50648016806488847044801680548E5
:102060008847024801680448884710BD04340000CE
:10207000A4340000B8340000CC34000010B50C4883
:1020800001680C4888470A4801680B488847084897
:1020900001680A4888470648C168064888470448D6
:1020A000C168054888470248C1680448884710BD90
:1020B00004340000E8340000FC3400001035000057
:1020C00070B50446002C01D02F4804602F48006BE7
:1020D000022108432D490863FEF77EFB17E02C48D8
:1020E0002949096888470B202949C88005212848C3
:1020F00001F001F90B302649087226491120C0026F
:10210000FFF7FAFE22491120C002FFF705FF112058
:10211000C0022149086035E01F4800680578FF2D9E
:1021200016D10A221C480168491C1948FEF722F8FA
:102130000521174801F0DFF80B30C0B21449097AC5
:10214000884204D11248C0880B2800D170BDC6E770
:10215000F52D00D0C3E7104800680B300E49086029
:10216000084600680B3001210904884209D20A4858
:102170000068884205D2084800681121C9028842D7
:1021800000D2ACE7C8E700005C000020000001407E
:10219000E80000200B8800006000002000B587B038
:1021A000182101A8FDF7FFFF01F0B2F801218020FE
:1021B000FFF7DEF801214802FFF70CF9002168461D
:1021C00001814181214803906846018241828182D8
:1021D0000183E1204002019003216846C18201A9E8
:1021E0001B48FFF7E7FB4B20800101900321684665
:1021F000C18201A91748FFF7DDFB04211548FFF74D
:10220000D5FA012204211348FFF786FB0421104868
:10221000FFF7CCFA012204210D48FFF77DFB1B20BC
:10222000FFF7B6FD01211B20FFF70AFE1B20FFF779
:10223000BBFD1C20FFF7ACFD01211C20FFF700FEB9
:102240001C20FFF7B1FD07B000BD0000006CDC02F0
:10225000003801400044004010B50249086880473A
:1022600010BD0000E034000010B5024801680120F4
:10227000884710BD6C3400001CB50648016800207A
:102280008847044841686846884703496846FFF71D
:1022900023FE1CBD2C350000800000201CB510481A
:1022A000816868468847694608780721FDF73EFF40
:1022B000C8B20C49087069464878C117490F091817
:1022C000C910C900411A074A517069468878002828
:1022D00001D0012000E00020024988701CBD0000F0
:1022E0005C3500008C0000201CB509490868804757
:1022F00008488168684688476946C878C117890FC9
:10230000091889108900411A034A11701CBD000088
:10231000243500005C3500009800002070B520498D
:10232000486880471F490968401A0A2837D91C495C
:10233000486880471B4908600A211B480078401CF8
:10234000FDF7F4FEC8B2184908700A461278530027
:10235000D218164BD018164A5168884700201CE046
:10236000012401210FE04A1E5300D2180F4BD2184E
:10237000125C4B00CB180D4D5B191B5C9A4200D0D0
:1023800000244A1CD1B20A29EDDB002C03D00749F6
:10239000095C084A1154411CC8B20328E0D370BD3F
:1023A000943400006800002067000020F200002044
:1023B000E03400006400002000B585B0FE484068AD
:1023C00002908047FD490968401A0A2871D9FA48E5
:1023D000406802908047F9490860F948C068029057
:1023E00004A802998847F7488068029003A80299D8
:1023F0008847F548C0680290002002998847F24853
:10240000C0680290012002998847EF48C068029096
:10241000022002998847EC48C06802900320029984
:102420008847E948C0680290042002998847E64836
:10243000C0680290052002998847E348C06802906E
:10244000062002998847E048C06802900720029958
:1024500088476846807C00287ED16846007C00283A
:1024600006D1D948806802900320029988479EE2ED
:102470006846007C012806D1D3488068029002207B
:102480000299884793E26846007C022806D1CE482C
:102490008068029001200299884788E26846007CA3
:1024A000032807D1C8488068029000200299884715
:1024B0007DE2ABE26846007C04282FD1C2488068E8
:1024C0000290032002998847BB48406801908047EA
:1024D0000290BE4801680298FDF712FEC007C00FC7
:1024E000002806D1B84880680290022002998847E7
:1024F0005DE2B1484068019080470290B3480168AE
:102500000298FDF7FDFDC007C00F0028AFD0AE4810
:102510008068029001200299884748E26846007C62
:10252000052831D1A8488068029002200299884786
:10253000A1484068019080470290A4480168029831
:10254000FDF7DEFDC007C00F002808D19E48806857
:1025500002900120029900E04AE0884727E296486D
:102560004068019080470290984801680298FDF702
:10257000C7FD8007800F012884D1934880680290AE
:1025800003200299884712E26846007C062884D11D
:102590008D488068029001200299884786484068EB
:1025A000019080470290894801680298FDF7A8FDD4
:1025B000C007C00F002806D183488068029002201F
:1025C00002998847F3E17C48406801908047029077
:1025D0007E4801680298FDF793FDC007C00F0028F0
:1025E00086D0794880680290032002998847DEE10E
:1025F0006846407C00280CD1734880680290022015
:1026000002998847704880680290032002998847A1
:10261000CDE16846407C01280CD16B48806802906F
:10262000002002998847684880680290012002993A
:102630008847BCE16846407C022818D1624880681F
:1026400002900020029988475F488068029001202C
:10265000029988475C488068029002200299884766
:102660005948806802900320029988479FE1684694
:10267000407C032853D15048406801908047029025
:10268000524801680298FDF73BFD8007800F002843
:1026900006D14D488068029000200299884786E163
:1026A0004548406801908047029048480168029878
:1026B000FDF726FD8007800F012806D1424880687B
:1026C000029001200299884771E13B4840680190DF
:1026D000804702903D4801680298FDF711FD800790
:1026E000800F022806D138488068029002200299A3
:1026F00088475CE130484068019080470290334849
:1027000001680298FDF7FCFC8007800F032890D138
:102710002D488068029003200299884747E1684667
:10272000407C042857D128488068029003200299F1
:1027300088472148406800908047019023480168FD
:102740000198FDF7DDFC03210290FDF7D9FC00297B
:1027500006D11D488068029001200299884726E131
:10276000154840680090804701901848016801981A
:10277000FDF7C6FC03210290FDF7C2FC012906D13A
:102780001148806802900220029988470FE10A48A8
:1027900040680090804701900C4801680198FDF75F
:1027A000AFFC03210290FDF7ABFC02298CD1064857
:1027B0008068029000200BE0943400007C00002030
:1027C00078350000883500006C3400007800002067
:1027D00002998847EBE06846407C05284AD18C483E
:1027E000806802900220029988478A4840680090D9
:1027F00080470190884801680198FDF781FC03211A
:102800000290FDF77DFC002906D181488068029086
:10281000002002998847CAE07E48406800908047BF
:1028200001907D4801680198FDF76AFC0321029040
:10283000FDF766FC012906D17548806802900120E9
:1028400002998847B3E07348406800908047019040
:10285000714801680198FDF753FC03210290FDF7D0
:102860004FFC022992D16A488068029003200299A5
:1028700088479CE06846407C06284AD164488068C6
:102880000290012002998847624840680090804782
:102890000190614801680198FDF732FC0321029024
:1028A000FDF72EFC002906D15948806802900020CF
:1028B000029988477BE05748406800908047019024
:1028C000554801680198FDF71BFC03210290FDF7B4
:1028D00017FC012906D14E48806802900220029917
:1028E000884764E04B4840680090804701904A4820
:1028F00001680198FDF704FC03210290FDF700FC3C
:10290000022954D1424880680290032002998847E6
:102910004DE06846407C072849D13D4880680290D8
:102920000020029988473B4840680090804701900A
:10293000394801680198FDF7E3FB03210290FDF798
:10294000DFFB002906D132488068029003200299FB
:1029500088472CE02F4840680090804701902E481F
:1029600001680198FDF7CCFB03210290FDF7C8FB3D
:10297000012906D1264880680290012002998847E3
:1029800015E0244840680090804701902248016883
:102990000198FDF7B5FB03210290FDF7B1FB022979
:1029A00005D11B488068029002200299884768463A
:1029B000007B002806D11648806802900420029906
:1029C00088471FE06846007B012806D110488068D0
:1029D000029005200299884714E06846007B02288F
:1029E00006D10B488068029006200299884709E0CA
:1029F0006846007B032805D10548806802900720BF
:102A000002998847024840680290804705B000BD9F
:102A10006C34000094340000780000201FB5224977
:102A20004868804721490968401A64283BD91E49F3
:102A3000486880471D4908601D48C16803A8884749
:102A40001C48816802A888476846007B1A490870BC
:102A50006846407B48706846807B88706846007A8C
:102A6000C87000BF084601796846017112480178B4
:102A70006846017010484178684641700E48817878
:102A8000684681700C48C1786846C17000BF0B4829
:102A9000816868468847094841686846884706490A
:102AA0006846FFF719FA1FBD943400008800002023
:102AB0007835000088350000800000202C350000AB
:102AC00038B5002439494868804739490968401AAF
:102AD000322869D935494868804735490860354802
:102AE00081686846884768460078002807D06846AD
:102AF0004078002803D001202F4908700EE0684676
:102B00000078002803D168464078002801D00120D1
:102B100000E00020002801D12749087026480078ED
:102B200000282AD16846007801280FD12348007870
:102B300000280BD122490978481C0721FDF7F6FA35
:102B4000C8B21F4908700020887001246846407888
:102B5000012812D11948407800280ED11849497827
:102B6000481CC117490F0918C910C900411A144A55
:102B700051700120114688700124002C0FD000F004
:102B8000C5F905462A4601210E48FEF7D5FB00F09F
:102B9000BDF905462A4601210B48FEF7CDFB03226D
:102BA00069460648FDF7E6FA38BD00009434000097
:102BB0009000002044350000940000209500002083
:102BC0008C000020003801400044004008B5264930
:102BD0004868804725490968401A322842D9224965
:102BE00048688047214908602148816868468847CD
:102BF0006846807801280ED11E48007800280AD146
:102C00001D490978481CC117890F091889108900C6
:102C1000411A194A117018480078002804D1174841
:102C200041680020884719E013480078012804D142
:102C3000124841680120884710E00F4800780228B8
:102C400004D10E4841680220884707E00A4800780E
:102C5000032803D1094841680320884768468078E3
:102C60000449087008BD0000943400009C00002056
:102C700044350000A000002098000020243500000A
:102C800010B50446002C06D0012C11D0022C1CD00B
:102C9000032C34D126E01B48C1681B4888471948DB
:102CA000C1681A488847174881681948884726E04C
:102CB0001448C168144888471248816813488847F7
:102CC0001048C1681248884719E00E4881680E48CC
:102CD00088470C4881680D4888470A48C1680C48F5
:102CE00088470CE007488168074888470548C1685D
:102CF00006488847034881680548884700BF00BFE9
:102D000010BD000004340000E8340000FC34000072
:102D10001035000010B504460F4841690F48884738
:102D2000002801D1012000E0002020700A484169FC
:102D30000B488847002801D1012000E00020607086
:102D40000548416907488847002801D1012000E073
:102D50000020A07010BD000004340000A434000066
:102D6000B8340000CC34000010B5044605220249F6
:102D70002046FDF7FFF910BDE800002010B504461D
:102D8000032202492046FDF7F5F910BD640000203A
:102D900010B50446082202492046FDF7EBF910BDA4
:102DA0007000002010B50446052202492046FDF7B8
:102DB000E1F910BD8000002010B50446032202494D
:102DC0002046FDF7D7F910BD8C0000200149097895
:102DD0000170704798000020024600210CE0114865
:102DE000405C904206D11048017000200E4B987054
:102DF00001207047481CC1B20729F0DB00210CE01C
:102E000008480830405C904205D1074841700120D5
:102E1000054B9870EDE7481CC1B20829F0DB002093
:102E2000E7E70000683500008C00002038B5054653
:102E3000052229463348FDF7C1F9002800D138BDE5
:102E400031480468F5200090E101080CFDF776FD9B
:102E5000012269462046FDF7EBFDE101080CFDF774
:102E6000C3FC00BF284800680B30274908600846AB
:102E700000680B3001210904884209D22248006809
:102E8000884205D2204800681121C902884203D235
:102E90001120C0021C4908601B480068C005C00D15
:102EA000002813D018480068410A174800680B3002
:102EB000400A814210D014490968490A491C480255
:102EC000114909680B31FFF717F805E00E48016852
:102ED0000B310068FFF710F8052229460948FDF775
:102EE00049F90B200749C8800521064800F003FA7C
:102EF0000B300449087204480068FFF70DF800BF62
:102F00009DE70000E80000206000002010B50C489C
:102F1000807800280AD00A484478E017400F00194A
:102F2000C010C000211A0748405C10BD0449087851
:102F30000721FDF7FBF803480838405CF5E700007F
:102F40008C000020703500000920C00600680221B6
:102F50008843801C0921C906086070470220054982
:102F600088610920C0060068022188430921C9063A
:102F700008607047400000480920C0060068022130
:102F80008843801C0921C906086070470220054952
:102F9000C8610920C0060068022188430921C906CA
:102FA00008607047400000480920C00600684008DB
:102FB0004000401C0921C9060860704701200549EE
:102FC00088610920C0060068400840000921C90640
:102FD00008607047400000480920C00600684008AB
:102FE0004000401C0921C9060860704701200549BE
:102FF000C8610920C0060068400840000921C906D0
:10300000086070474000004810B504460B4801684E
:103010000B488847094801680A48884707480168FB
:10302000094888470548016808488847084800213A
:10303000016041600748047010BD000004340000C6
:103040001C340000303400004434000058340000C8
:1030500050000020580000200021014A1154704700
:10306000500000200121014A1154704750000020F7
:1030700001460148405C70475000002010B52948C7
:103080000078401CC007C00F264908702649254A11
:103090001278895CC900254A8918234A214B1B787C
:1030A000D25C234B9A5C9200885880471E49891C49
:1030B0001C4A1278895CC9001C4A8A181A49891C62
:1030C000184B1B78C95C1A4B595C890050588047D3
:1030D00018480078002823D01349091D114A127896
:1030E000895CC900114A8A180F49091D0D4B1B78CC
:1030F000C95C0F4B595C8900505880470A49891DAB
:10310000084A1278895CC900084A8A180649891D4C
:10311000044B1B78C95C064B595C890050588047AA
:1031200010BD000059000020843400001000002071
:1031300050000020580000200449095C002901D1FA
:10314000012100E00021014A115470475000002085
:103150000920C006006804218843001D0921C90612
:10316000086070470420054988610920C00600688E
:10317000042188430921C9060860704740000048BF
:103180000920C006006804218843001D0921C906E2
:103190000860704704200549C8610920C00600681E
:1031A000042188430921C90608607047400000488F
:1031B0000920C00600680821884308300921C90693
:1031C000086070470820054988610920C00600682A
:1031D000082188430921C90608607047400000485B
:1031E0000920C00600680821884308300921C90663
:1031F0000860704708200549C8610920C0060068BA
:10320000082188430921C90608607047400000482A
:1032100014490868804714490868804713490868BA
:103220008047134908688047124908688047124957
:103230000868804711490868804711490868804735
:103240000EE00A49486880470A49486880470849AB
:103250004868804708494868804708494868804767
:10326000EFE700008C340000943400005C3500006F
:1032700050350000443500007835000088350000E6
:1032800038350000F8B507460D461646002D01D02A
:10329000002E00D1F8BD00240CE000BF012138460B
:1032A000FEF7BEFA0028F9D0295D3846FEF71AFD70
:1032B000601C84B2B442F0DB00BF02213846FEF746
:1032C000AFFA0028F9D000BFE4E770B504460D4618
:1032D00000BF01212046FEF7A3FA0028F9D02946B5
:1032E0002046FEF7FFFC00BF02212046FEF798FAB9
:1032F0000028F9D070BD10B502460023002003E07D
:10330000145CE418E3B2401C8842F9D3184610BD9F
:103310000EB500200090019002902748006B2021FC
:103320000843254908630846006B402108432249A9
:1033300008632248806900090001401C1F49886118
:1033400008468069F021884310301C4988611C4878
:1033500040690F2109068843012189064018184950
:1033600048610846406900010009C9044018144931
:103370004861022000902020019069460F48FDF727
:1033800084FE012000901120019069460B48FDF752
:103390007CFE0120800300902020019069460848AF
:1033A000FDF773FE0120C0030090112001906946D3
:1033B0000348FDF76AFE0EBD00000140000400480E
:1033C000000800480600000006000000060000009B
:1033D00006000000060000000600000001000000DA
:1033E00003000000020000000400000006000000CE
:1033F000080000000A0000000C0000000E000000A1
:1034000010000000E90A0000D90A00003110000095
:103410001F10000043100000051000000200000013
:103420000000004800020000000000000000000052
:103430000100000000000048000200000000000041
:10344000000000000400000000000048000200002E
:10345000000000000000000008000000000000481C
:103460000002000000000000000000000930000021
:103470007D30000065300000593000003931000017
:10348000713000000001020304050607152000004A
:10349000012000004120000009200000591F000009
:1034A0004D1F000000100000000400480000000054
:1034B00000000000000000000020000000040048A0
:1034C00000000000000000000000000000200000DC
:1034D000000800480000000000000000000000009C
:1034E00051200000152D00000400000000040048D9
:1034F0000102000000000000000000004000000089
:103500000000004801020000000000000000000070
:103510000800000000040048010200000000000054
:10352000000000007D200000812C0000C120000070
:10353000692D00002D2E00009D2100008532000025
:10354000CB320000592200001D2300007D2D000019
:1035500069220000B9230000912D000079220000AB
:103560001D2A0000A52D0000010203040506070026
:1035700008090A0B0C0D0E0F9D220000C12A000045
:10358000D92D0000B92D0000E9220000CD2B00004C
:10359000CD2D0000B435000000000020A800000080
:1035A000B81E00005C360000A80000206802000081
:1035B000C81E000000000000040000000100000020
:1035C00000127A00492F00005D2F0000792F0000C3
:1035D0008D2F0000A92F0000BD2F0000D92F000063
:1035E000ED2F0000513100006531000081310000F5
:1035F00095310000B1310000C5310000E13100001B
:10360000F531000000000000000000000000000094
:103610003F1F00000000000000000000000000004C
:103620000000000000000000000000006400000036
:10363000000000000000000000000000000000008A
:103640000000000000000000010000000000000079
:0C3650000000000001000000000000006D
:04000005000000C136
:00000001FF
