:020000040000FA
:1000000008050020D5000000E3000000E500000026
:1000100000000000000000000000000000000000E0
:10002000000000000000000000000000E7000000E9
:100030000000000000000000E9000000C5190000F9
:10004000ED000000ED000000ED000000ED000000FC
:10005000ED000000ED000000ED00000000000000D9
:100060000000000000000000000000000000000090
:10007000ED000000ED000000ED000000ED000000CC
:10008000ED0000000000000000000000ED00000096
:10009000ED000000ED000000ED000000ED000000AC
:1000A00000000000ED000000000000003D1A00000C
:1000B000ED0000000000000000000000ED00000066
:1000C0000348854600F018FB00480047C53500008E
:1000D0000805002006490868854606488047064806
:1000E0000047FEE7FEE7FEE7FEE7FEE7FEE700006B
:1000F00000000000ED190000C100000003460B43A2
:100100009B0703D009E008C9121F08C0042AFAD2CD
:1001100003E00B780370401C491C521EF9D2704753
:1001200030B504460020034600E05B1C934203D236
:10013000E05CCD5C401BF8D030BDF8B502464A40CB
:10014000D40F42004B0052085B089A4202D202468A
:10015000084611464A0023D0C30D4A00DDB2120EF4
:10016000AD1A202D35DA49020126490AF6058A1909
:10017000002C00D0524220214F1B1146B9402A4189
:100180001018C20D9A4221D0002C17D0012D08DC86
:10019000DA05801AD20F8019D207DBB200F013FA09
:1001A000F8BDDA05801A012340001B06C01880182C
:1001B0005A428018CA0F1043490007E04908C20795
:1001C0001143DA05801A80194008801800F0F3F90D
:1001D000F8BD61000122511A001BF7E70122D20786
:1001E0005140AAE70122D2075040A6E7024670B567
:1001F0004A40D30FDB0740002DD04A002AD0010E21
:10020000140E000212020919400A520A8418E5016C
:1002100004465443000A120A2E045043A4194219FA
:10022000200CC543AA18120C0125AD03521C52190B
:1002300012047F39240400D0521C104301D4400022
:10024000491EC2B20C06C0092018401C4008802A72
:1002500002D003E0002070BD40084000002900DA11
:100260000020184370BD70B502464A40D50F4000CB
:100270004A00ED0740085208002814D0002A12D086
:10028000C40DD30D41020120C0055202490A520A91
:10029000E41A091812187D34914201D3641C00E05D
:1002A0004900002C01DA002070BD0023914201D3E7
:1002B000891A0343400849000028F7D100290AD0D1
:1002C000914202D10121C90705E0914201D20121E9
:1002D00001E00121C943E005C018401900F06BF9A5
:1002E00070BD0000F0B507460846584087B0C00F03
:1002F000049048000E46590040084908BC1A88413D
:1003000005D2384631461E4617460B46024658006F
:10031000400810434CD0300D039040055900400D6B
:10032000490D0590401A0290402872DA1803012105
:10033000000B09050843019004980092002805D09D
:100340000199524200208841009201900298402178
:100350000A1A0199009800F0FAF805460C466B4617
:1003600007CB00F015F9C0197141039A0E0D002357
:10037000D71756401A467A40164344D0049A002AAA
:100380002DD0029A012A039A15DC1205C01A914158
:1003900001263605001C7141D20F059ED20700933D
:1003A000019202962A46234600F053F907B0F0BDA9
:1003B00038463146FAE71605224A0F46B218C01AE7
:1003C000B74101210905001C4F4100187F4111462A
:1003D00018187941E20F10436D19644113E0E207E8
:1003E0006D0815436408C2071443039A01261205D9
:1003F000C01A91413605001C7141CE0740083043B8
:100400004908C01851412A46234600F015F9CDE7A6
:10041000FFE7049801224000C117121A00238B4104
:1004200004983146C417381AA141EEE730B40124CC
:10043000E407634030BC55E730B40124E407614071
:1004400030BC4FE70000E0FFC217C10F504010B5AD
:100450004018CA079623002100F0B5F810BD10B56A
:1004600000229623114600F0AEF810BDC20F4100E5
:1004700040020123400ADB05D207090EC0187F297C
:1004800001DA00207047962903DC9623591AC840E8
:1004900001E096398840002AF4D0404270470000BD
:1004A00070B5CD0F4A0009030123090B1B05194341
:1004B0000B4BED070024520D9A4201DA002070BD6B
:1004C000074B34339A4203DC9A1A00F050F802E0EA
:1004D0000449511888402C43F1D0404270BD0000BF
:1004E000FF030000CDFBFFFFC20FD2074000400812
:1004F0000BD0C10D0723DB01C91840020905400AD2
:100500001143C2084007114370470020014670475D
:1005100070B50446002903D000202022012310E0FA
:10052000002801D00020C043C046C0460DE025464B
:10053000D5408D4205D30D469540641B1D46954020
:1005400040191546521E002DF1DC214670BD10B534
:10055000202A04DB0146203A9140002010BD914042
:1005600020239C1A0346E3401943904010BD10B568
:10057000202A04DB0846203AD040002110BD0B465B
:10058000D340D0402024A21A91400843194610BD00
:1005900010B5202A06DBCB170846203A1041C117B8
:1005A0000B4306E00B461341D0402024A21A914091
:1005B0000843194610BD002904DA401C490001D146
:1005C00040084000704770B40024050C05D1102489
:1005D000000402D1002921D01124050E01D100020E
:1005E0000834050F01D10001241D850F01D18000C1
:1005F000A41C002801DB4000641C002908D0202531
:100600002E1B0D46F540A14000D00121294308438F
:1006100001061B1B000ADB1D02D5002070BC7047C1
:10062000DB05181880180029F8DA401C4900F5D1BC
:1006300070BC40084000704710B5002B08DA002459
:10064000401C614192185B411A4301D140084000AF
:1006500010BDF0B51FB482B005460C0003D00846AB
:1006600003F0B6F802E003F0B3F820300246009041
:1006700021462846FFF76BFF049B059A04460F4668
:1006800018431143084314D0184610431BD0009858
:1006900040210A1A18460599FFF769FF05460E46DC
:1006A000009A05990498FFF752FF084305D00120EE
:1006B00004E02046394607B0F0BD0020C1170543CD
:1006C0000E432C43374300990E986305401A790571
:1006D000E40A00220C43FD0A0A3002D5002001463C
:1006E000E9E70105101969410C9C0D9D001969414C
:1006F000FFF7A2FFDFE700001CB50948009009489A
:10070000019005460126009C05E0E36807CC3343D1
:100710000C3C98471034AC42F7D3FFF7D5FC0000EF
:100720004C3A00006C3A000084B00290019102A89B
:100730004088002805D1FFE701A84088002804D0A0
:10074000FFE703A98020087036E0FFE7BD48006896
:100750008006C00F002801D0FFE7F7E7BA49002064
:100760000860BA490A68684602800088144A104343
:100770000860FFE702980199884212D8FFE70299C2
:1007800000200860FFE7AF4800688006C00F00281F
:1007900001D0FFE7F7E702980121490240180290D3
:1007A000E8E768460088AB494018A8490860A548B2
:1007B000006803A90870FFE703A8007804B0704739
:1007C00002005A5A7549A3480860704780B582B044
:1007D000014601A8018000884649884201DCFFE704
:1007E00005E04548BD21490001F03EFDFFE76B49AA
:1007F0000A68684602800088964A801801AA128812
:10080000D30801229A4090430860002002B080BDC6
:1008100086B00490039102A90020088003980499EF
:10082000884204D2FFE705A9802008703CE004A8B4
:100830004088002805D1FFE703A84088002804D09D
:10084000FFE705A9802008702EE0FFE704980399D0
:10085000884211D8FFE70498010B01A801800088A5
:1008600001210A4682400298104302AA108004988F
:10087000490240180490E9E702A80088002804D142
:10088000FFE705A9802008700EE044490A68684621
:10089000028000886F4A801802AA1288904308607C
:1008A00005A900200870FFE705A8007806B070478A
:1008B00080B582B0014601A8018000880D498842B8
:1008C00001DCFFE704E00C487D2101F0CDFCFFE7EF
:1008D00032490A6868460280008801AA1288D30853
:1008E00001229A4010435B4A10430860002002B086
:1008F00080BDC046FF010000C039000086B00490F2
:10090000039101A90020088004980399884204D922
:10091000FFE705A9802008703CE004A84088002873
:1009200005D1FFE703A84088002804D0FFE705A908
:10093000802008702EE0FFE704980399884211D8C0
:10094000FFE70498010B68460180008801210A46F0
:1009500082400198104301AA10800498490240186F
:100960000490E9E701A80088002804D1FFE705A961
:10097000802008700EE009490A6802A802800088F9
:1009800001AA12881043334A8018086005A9002084
:100990000870FFE705A8007806B0704708200240FD
:1009A00085B00390029101A90A8003980988401834
:1009B000401E000C002804D0FFE704A98020087026
:1009C0003CE0FFE71F4800688006C00F002801D008
:1009D000FFE7F7E71C49002008601C490A686846E1
:1009E000028000881A4A10430860FFE701A80088C7
:1009F000002818D0FFE70298007803990870FFE7F5
:100A0000104800688006C00F002801D0FFE7F7E714
:100A10000398401C03900198401E01A90880029889
:100A2000401C0290E2E7684600880A4940180749DE
:100A300008600448006804A90870FFE704A800786B
:100A400005B07047242002402820024000200240C8
:100A500001005A5A00005A5A80B582B0019001999B
:100A60004868096800F0F2FA02B080BD80B588B02D
:100A70000790002006900590049003A9087002904A
:100A8000FFE702980F280ED8FFE707980068029941
:100A9000C840C007002801D0FFE704E0FFE7029844
:100AA000401C0290EDE70298102801D3FFE79AE27C
:100AB000079801F0ABFB002801D1FFE793E207980C
:100AC000007A0190092800D944E20198810001A030
:100AD00040588746FD0A00005D0B0000C90B00006E
:100AE0005F0C0000F50C00008B0D0000150E0000DF
:100AF000230E0000890E0000EF0E00000798026828
:100B00004168C8699043C8610798026841680868ED
:100B100010430860079802684168486A9043486239
:100B2000079802684168886A90438862029807289B
:100B300009D8FFE702980F22824007984168886928
:100B40009043886109E0029808380F228240079894
:100B50004168486990434861FFE7FCE107980268F3
:100B60004168C8699043C86107980268416808688D
:100B7000904308600798026841684868904348605D
:100B8000079802684168486A90434862079802687B
:100B90004168886A904388620298072809D8FFE76D
:100BA00002980F22824007984168886990438861C3
:100BB00009E0029808380F22824007984168486986
:100BC00090434861FFE7C6E1079802684168C86939
:100BD0009043C861079802684168086890430860BC
:100BE000079802684168486810434860079802689F
:100BF0004168486A90434862079802684168886A79
:100C0000904388620298072813D8FFE702980F22C2
:100C10008240079841688869904388610798026913
:100C200007210A4002998A40416888691043886117
:100C300014E0029808380F228240079841684869FA
:100C4000904348610798026907210A4002990839D0
:100C50008A404168486910434861FFE77BE1079893
:100C600002684168C8699043C86107980268416892
:100C70000868904308600798026841684868904394
:100C80004860079802684168486A9043486207983C
:100C900002684168886A904388620298072813D8DE
:100CA000FFE702980F2282400798416888699043C5
:100CB00088610798026907210A4002998A404168C1
:100CC00088691043886114E0029808380F22824036
:100CD000079841684869904348610798026907216D
:100CE0000A40029908398A404168486910434861BE
:100CF000FFE730E1079802684168C8699043C8611E
:100D0000079802684168086890430860079802687D
:100D10004168486810434860079802684168486A1B
:100D200090434862079802684168886A90438862E5
:100D30000298072813D8FFE702980F2282400798ED
:100D400041688869904388610798026907210A40D1
:100D500002998A40416888691043886114E00298CA
:100D600008380F22824007984168486990434861DB
:100D70000798026907210A40029908398A404168A8
:100D8000486910434861FFE7E5E007980268416859
:100D9000C8699043C86107980268416808681043B1
:100DA0000860079802684168486A9043486207985B
:100DB00002684168886A904388620298072813D8BD
:100DC000FFE702980F2282400798416888699043A4
:100DD00088610798026907210A4002998A404168A0
:100DE00088691043886114E0029808380F22824015
:100DF000079841684869904348610798026907214C
:100E00000A40029908398A4041684869104348619C
:100E1000FFE7A0E0079802684168C8691043C8610D
:100E200099E0079802684168C8699043C8610798CB
:100E300002684168086810430860079802684168C2
:100E4000486A10434862079802684168886A90437C
:100E500088620298072809D8FFE702980F2282408B
:100E60000798416888699043886109E002980838CA
:100E70000F22824007984168486990434861FFE724
:100E800003A90120087066E0079802684168C869F4
:100E90009043C86107980268416808681043086079
:100EA000079802684168486A904348620798026858
:100EB0004168886A104388620298072809D8FFE7CA
:100EC00002980F22824007984168886990438861A0
:100ED00009E0029808380F22824007984168486963
:100EE00090434861FFE703A90120087033E00798A9
:100EF00002684168C8699043C86107980268416800
:100F0000086810430860079802684168486A1043FF
:100F10004862079802684168886A104388620298AC
:100F2000072809D8FFE702980F22824007984168F6
:100F300088699043886109E0029808380F2282404E
:100F400007984168486990434861FFE703A9012079
:100F5000087000E047E00798407A0090002804D02D
:100F6000FFE70098022807D00DE007980268416863
:100F700008691043086107E007980268416808693A
:100F80009043086100E02EE003A80078002810D00C
:100F9000FFE70298810015484058002801D0FFE77C
:100FA00021E00798C06802998A0010498850FFE73D
:100FB000FFE70798007A012805D0FFE70798007A35
:100FC000022810D1FFE707980069002805D0FFE745
:100FD000074881680798884704E00548C168079872
:100FE0008847FFE7FFE708B080BDC046B800002093
:100FF0006438000080B582B0019001994868098882
:1010000000F0E2F8411E884102B080BD80B582B098
:101010000190019948680988002200F0F7F802B0B1
:1010200080BD80B582B0019001994868098801228D
:1010300000F0ECF802B080BD80B582B0019001995B
:101040004868098800F0D9F802B080BD82B00190EC
:101050000091009A0199C8691043C861009A0199EA
:10106000086810430860009A019908699043086174
:10107000009A0199486A90434862009A0199886AE7
:1010800090438862009A019948689043486002B092
:101090007047000083B002900191029800900921EE
:1010A000C906884205D0FFE700984349884206D028
:1010B0000BE042490868434A1043086006E03F4994
:1010C00008683F4A1043086000E0FFE70198406865
:1010D000002807D1FFE7019802680299C869104308
:1010E000C86167E0019802680299C8699043C861C5
:1010F00001980079C006002841D5FFE701980268F1
:10110000029908681043086001980268029908690A
:101110009043086101984068112807D1FFE70198C2
:1011200002680299086910430861FFE701980268A4
:101130000299486A90434862019802680299886A55
:10114000904388620198806881210840812807D1F6
:10115000FFE7019802680299486A10434862FFE776
:101160000198806882210840822807D1FFE7019812
:1011700002680299886A10438862FFE719E00198C3
:101180000268029908689043086001984068202826
:1011900007D1FFE7019802680299486890434860C8
:1011A00006E0019802680299486810434860FFE72A
:1011B000FFE7FFE703B07047000100483040004000
:1011C00020005A5A10005A5A84B0009101460098E3
:1011D000029101A908800298006D0988084204D094
:1011E000FFE703A90120087003E003A900200870AD
:1011F000FFE703A8007804B0704782B0019068460A
:10120000018000880199086602B0704783B002909F
:1012100001A80180684602700078012805D1FFE727
:1012200001A800880299C86504E001A80088029915
:101230008865FFE703B07047014800687047C04603
:101240000401002080B584B00390039802900D48FB
:1012500001787D20C000FFF75BF901460298FFF797
:1012600057F900F087FB002801D0FFE708E00021D4
:101270000191C84300F04AFF019803490860FFE765
:1012800004B080BD500000205400002084B00390C2
:1012900002A8017001A900200870FFE702AA1078D7
:1012A000411E117000282AD0FFE70398411C0391CA
:1012B00001780198484001A908706946002008702B
:1012C000FFE768460078072818DCFFE701A80078E8
:1012D0000006002807D5FFE7019840000721484095
:1012E00001A9087004E00198400001A90870FFE717
:1012F000FFE70098401C69460870E2E7CEE701A8C6
:10130000007804B07047000080B584B0024603A89E
:10131000027002AA117000780190012804D0FFE742
:101320000198022819D01FE002A80078012813DBD9
:10133000FFE702A800780F280EDCFFE702A8009064
:1013400002780C48012100F081F8009802780848E2
:10135000802100F07BF8FFE707E002A8027804484C
:10136000822100F073F800E0FFE704B080BDC046C2
:10137000000C00400010004080B584B003A9087044
:10138000314800780090042858D80098810001A0C6
:1013900040588746A9130000BD130000ED1300005C
:1013A000F91300000514000003A80078552804D1A3
:1013B000FFE7254901200870FFE743E003A8007814
:1013C000AA2804D1FFE72049022008700DE003A8F5
:1013D0000078552804D1FFE71B490120087003E07D
:1013E000194900200870FFE7FFE72BE00398164932
:1013F00048700320087025E0039813498870042082
:1014000008701FE010494A7802A80270897841707C
:101410000221FFF73BFF014601A80170007803A9F4
:101420000978884206D1FFE7074948788978FFF7AD
:101430006BFFFFE704490020087003E00249002029
:101440000870FFE704B080BDF800002080B588B0C8
:10145000079006A8017005A80270069904A80170FB
:101460000599417002AA019255211170AA2151706B
:10147000069991700599D1700221FFF707FF019934
:1014800008710348436807980522984708B080BD53
:10149000BC38000080B582B00190684601700198A8
:1014A000C009002805D1FFE70198002801D0FFE717
:1014B00004E0CD480D4900F0D7FEFFE7684600780C
:1014C000002808D0FFE7019809490A681043C94A73
:1014D0001043086007E006490868019A9043C54A2E
:1014E00010430860FFE702B080BDC0469E020000C6
:1014F0003840004080B584B00020039002900190F5
:10150000BA4800680721084002909A4800684004E1
:10151000000F019002980090042822D800988100C2
:1015200001A040588746C0463D1500004F150000F9
:1015300063150000551500005B150000019881003F
:10154000134841581348FEF7E3FF039012E00F4899
:1015500003900FE00C4803900CE00120C0030390BF
:1015600008E0019881000A4841580A48FEF7D0FF78
:101570000390FFE70398EE4909680906490FC84040
:101580000390039804B080BD208000000024F40084
:1015900004390000006CDC0280B582B00190019833
:1015A00000281CD0FFE70198202818D0FFE70198F9
:1015B000402814D0FFE70198602810D0FFE7019879
:1015C00080280CD0FFE70198A02808D0FFE70198F9
:1015D000C02804D0FFE70198E02801D1FFE704E02C
:1015E000D048342100F040FEFFE7D1490868044AA2
:1015F0001040019A1043CF4A1043086002B080BDEA
:101600001FFF000080B584B0029001A956480880F1
:1016100002980121C902884258D0FFE702980121AF
:101620000903884252D0FFE702980321C902884289
:101630004CD0FFE7029801214903884246D0FFE7DA
:1016400002980521C902884240D0FFE70298032191
:10165000090388423AD0FFE702980721C90288426D
:1016600034D0FFE702980121890388422ED0FFE79A
:1016700002980921C902884228D0FFE70298052173
:101680000903884222D0FFE702980B21C902884251
:101690001CD0FFE7029803214903884216D0FFE7D8
:1016A00002980D21C902884210D0FFE70298072155
:1016B000090388420AD0FFE702980F21C902884235
:1016C00004D0FFE70298002801D1FFE705E0954824
:1016D0008D21490000F0C8FDFFE702980121C902F1
:1016E00088420DD1FFE7924800684007002806D1E4
:1016F000FFE71E4908681E4A10430860FFE7FFE73E
:101700000298C6490988C74A11400843C44908607D
:1017100019490868194A10430860FFE7C048016882
:10172000002009040029009006D4FFE701A80088E2
:10173000411E88410090FFE70098C007002805D0AF
:10174000FFE70198401E01A90880E7E701A800888B
:10175000002803D1FFE70120039002E0002003905E
:10176000FFE7039804B080BDFFFF00000840004081
:1017700010005A5A184000400440004001005A5AD4
:1017800080B582B00190019800281CD0FFE7019835
:10179000202818D0FFE70198402814D0FFE70198CF
:1017A000602810D0FFE7019880280CD0FFE701984F
:1017B000A02808D0FFE70198C02804D0FFE70198CF
:1017C000E02801D1FFE704E056483E2100F04CFD3F
:1017D000FFE757490868064A1040019A1043554AE6
:1017E0001043086002B080BDE039000000400040B6
:1017F000E7FF000000005A5A80B584B002900298BA
:1018000000280CD0FFE70298012808D0FFE70298D3
:10181000032804D0FFE70298042801D1FFE704E081
:101820004048414900F020FDFFE70298019004285C
:101830000ED80198810001A0405887465318000037
:1018400075180000511800008B180000AF18000038
:10185000FFE736480068C007002807D0FFE7334895
:1018600000680005C00F002803D1FFE701200390A6
:1018700055E03CE02D480068C004C00F002803D1AB
:10188000FFE7012003904AE031E0284800680007A4
:10189000C00F002807D0FFE7244800684004C00FAD
:1018A000002803D1FFE70120039038E01FE01F4824
:1018B00000688006C00F012815D0FFE71B480068AC
:1018C000C006C00F00280ED0FFE7184800680004CB
:1018D000C00F002807D0FFE7144800688006C00F3B
:1018E000002803D0FFE70120039018E0FFE710492C
:1018F000009108680F4A10430F4A1040029A1043A3
:101900000860FFF7F7FD00F019F80098006807215C
:1019100008400299401A411E88410390FFE703984E
:1019200004B080BDE0390000070200001040004014
:101930000040004000005A5AF8FF5A5A81B0009007
:1019400000982849086001B07047C04680B584B04F
:101950000390FFF771FC029003980190FFE7FFF7F7
:101960006BFC0299401A0199884201D2FFE7F6E721
:1019700004B080BD80B584B002900298401E000E75
:10198000002803D0FFE70120039011E00298401ED9
:101990000949086000200190C043032100F0B6FB14
:1019A000019806490860064A072111600390FFE785
:1019B000039804B080BDC04614E000E018E000E0E9
:1019C00010E000E0034802780349086880180860C6
:1019D0007047C04650000020040100200149024821
:1019E000086070470000002000093D0080B50B48EA
:1019F00002880B4908680B4B1A400B4B18408018A3
:101A000008600A4802880A4908680A4B1A400A4BCB
:101A1000184080180860FFF7E1FF80BDC007100084
:101A200018400040FF07000000F8FFFFC207100049
:101A300020400040FF03000000FCFFFF80B584B0A1
:101A40007E48042100F078F8002811D0FFE77B4899
:101A5000019000F0E5FA0146019803AA0292117084
:101A6000042100F007F802980078FFF785FCFFE7F3
:101A700004B080BD80B582B00190684601800198B5
:101A80006E49884205D0FFE701986D49884201D12F
:101A9000FFE705E06B48BB21490000F0E5FBFFE7ED
:101AA000684600880B49084206D1FFE7684600886F
:101AB000002801D0FFE705E06248FF21783100F0FF
:101AC000D3FBFFE7684602880199086A90430862E1
:101AD00002B080BDA1F1000080B582B001906846DF
:101AE000018001985549884205D0FFE70198544983
:101AF000884201D1FFE705E052486521890000F0E6
:101B0000B3FBFFE70020002806D1FFE76846008806
:101B1000002801D0FFE705E04A48FF21963100F098
:101B2000A3FBFFE70198C069694609880840411E88
:101B3000884102B080BDC04680B582B00190684641
:101B4000018001983D49884205D0FFE701983C4952
:101B5000884201D1FFE705E03A48AD21490000F095
:101B600083FBFFE7684600883749084206D1FFE754
:101B700068460088002801D0FFE705E03148FF21D2
:101B80005C3100F071FBFFE70198C0696946098884
:101B90000840411E884102B080BDC04680B584B077
:101BA000039002A8018001A802700398234988428B
:101BB00005D0FFE703982249884201D1FFE705E0FD
:101BC0002048FF21363100F04FFBFFE702A80088D4
:101BD0001D49084206D1FFE702A80088002801D06D
:101BE000FFE705E017489B21490000F03DFBFFE7B8
:101BF00001A80078002805D0FFE701A80078012897
:101C000001D1FFE705E00F48FF21383100F02CFB40
:101C1000FFE701A80078002807D0FFE702A80288A4
:101C2000039988681043886006E0029A03998868DF
:101C3000904380B28860FFE704B080BD000C004094
:101C400000100040023A0000A0F1000080B590B002
:101C50000F900E910DA9002008800CA908800B9010
:101C60000F98FB49884205D0FFE70F98F949884251
:101C700001D1FFE704E0F848892100F0F5FAFFE719
:101C80000E980068002807D0FFE70E980068DC492E
:101C9000884201D8FFE704E0EF488A2100F0E4FA27
:101CA000FFE70E988088002815D0FFE70E988088FF
:101CB0000121490288420ED0FFE70E988088012159
:101CC0008902884207D0FFE70E98808803214902E5
:101CD000884201D1FFE704E0F5488B2100F0C4FA07
:101CE000FFE70E98C08800280ED0FFE70E98C08846
:101CF00001214903884207D0FFE70E98C0880321DD
:101D00000903884201D1FFE704E0E9488C2100F093
:101D1000ABFAFFE70E988068002807D0FFE70E981F
:101D20008068B849884201D8FFE704E0E0488D2187
:101D300000F09AFAFFE70E988089002807D0FFE7A5
:101D40000E98808901210902884201D1FFE704E051
:101D5000D7488E2100F088FAFFE70E98C089002846
:101D60000AD0FFE70E98C089202805D0FFE70E981B
:101D7000C089102801D1FFE704E0CD488F2100F091
:101D800073FAFFE70E98008A00280FD0FFE70E983D
:101D9000008A08280AD0FFE70E98008A0C2805D090
:101DA000FFE70E98008A042801D1FFE704E0C0484D
:101DB000902100F059FAFFE70E98408A8008002829
:101DC00006D1FFE70E98408A002801D0FFE704E023
:101DD000B748912100F048FAFFE70E98808A002862
:101DE0000FD0FFE70E98808A08280AD0FFE70E98E8
:101DF000808A042805D0FFE70E98808A0C2801D13C
:101E0000FFE704E0AA48922100F02EFAFFE70F98BE
:101E10000A90A549884205D0FFE70A98A34988425D
:101E200008D00FE0784908687A4A1043784A104091
:101E3000086008E074490868744A1043744A104006
:101E4000086000E0FFE70F980068734908400E9AA9
:101E5000D1889388194393891943D3891943138AE5
:101E60001943528A114308430F9908600F9840683C
:101E70000C2188430E99898A08430F9948600E986F
:101E8000008A002806D0FFE70F9908684022104317
:101E9000086005E00F990868402290430860FFE75A
:101EA0000E988088002838D1FFE70E980690806849
:101EB000FEF7D5FA01460698079100680001FEF783
:101EC000CEFA01460798FEF7CEF90B900B98FEF775
:101ED000CDFA01460DA8099001800B990891008860
:101EE000FEF7B2FA01460898FEF778F98321C90592
:101EF000FEF77CF9FEF7F8FA0022484BFEF7F2F9FC
:101F0000FEF7CEFA099902460CA8028009880F9ABA
:101F1000D16000880F9908616FE00E9880880121D8
:101F2000490288421FD1FFE70E9804908068FEF7AF
:101F300096FA0146049805910068C000FEF78FFAF2
:101F400001460598FEF78FF9FEF7CEFA0022334BD3
:101F5000FEF7C8F9FEF7A4FA01460DA80180008833
:101F60000F99C86048E00E98808801218902884254
:101F70001FD1FFE70E9802908068FEF770FA0146C5
:101F80000298039100688000FEF769FA0146039801
:101F9000FEF769F9FEF7A8FA0022204BFEF7A2F936
:101FA000FEF77EFA01460DA8018000880F99C860EF
:101FB00021E00E9800908068FEF751FA8721C9054C
:101FC000FEF714F90146009801910068FEF747FA00
:101FD00001460198FEF747F9FEF786FA00220F4BFB
:101FE000FEF780F9FEF75CFA01460DA80180008833
:101FF0000F99C860FFE7FFE7FFE710B080BDC0465C
:10200000001BB700006CDC023840004010005A5A38
:10201000FFFF5A5A08005A5AC8C8FFFF0000E03FA5
:1020200080B582B0019001981F49884205D0FFE732
:1020300001981E49884201D1FFE704E01C4876213F
:1020400000F012F9FFE70198406AC0B202B080BD0B
:10205000000C004000100040023A000080B582B041
:1020600001906846017001980F49884205D0FFE74A
:1020700001980E49884201D1FFE704E00C48452150
:1020800000F0F2F8FFE768460078FF2801DCFFE780
:1020900004E00748462100F0E7F8FFE768460078CB
:1020A0000199886202B080BD000C00400010004021
:1020B000023A000081B00146684601700021405696
:1020C000002809D4FFE7684601781F20014001205D
:1020D000884002490860FFE701B0704780E200E0F5
:1020E00081B001466846017000214056002809D49D
:1020F000FFE7684601781F2001400120884002491F
:102100000860FFE701B0704700E100E070B582B001
:10211000024601A80270009100214056002816D402
:10212000FFE7002401A908570322D3431840364A89
:10213000805809578C07E50EFF24AC40A043009C53
:10214000A401E4B2AC402043194088501AE001A930
:1021500008780F24204008380322D3431840294A26
:102160008058002549578D07EE0EFF25B540A8433E
:10217000009DAD01EDB2B54028432140083919401A
:102180008850FFE702B070BD70B582B0024601A86A
:102190000270009100214056002816D4FFE7002469
:1021A00001A908570322D3431840174A80580957FA
:1021B0008C07E50EFF24AC40A043009CA401E4B2D0
:1021C000AC402043194088501AE001A908780F2438
:1021D000204008380322D34318400A4A805800257B
:1021E00049578D07EE0EFF25B540A843009DAD0170
:1021F000EDB2B54028432140083919408850FFE727
:1022000002B070BD1CED00E000E400E083B001907E
:102210000198406800900921C906884205D0FFE76F
:1022200000980E49884206D00BE0F94908680D4A2B
:102230001043086009E0F6490868094A104308603D
:1022400003E002A90020087003E002A90120087041
:10225000FFE702A8007803B07047C04600010048BD
:1022600020005A5A10005A5A82B00190009102B0D0
:10227000704782B0019000910098007901210840D8
:1022800001990871009800780199087000984078C9
:102290000199487000988078019988700098C078FA
:1022A0000199C87002B0704782B001900091019806
:1022B0000079411E884100990871019800780099C1
:1022C00008700198407800994870019880780099CA
:1022D00088700198C0780099C87002B0704780B5C6
:1022E00082B00190009101980099FEF707FB0198D8
:1022F0000099FEF719FA01980099FEF789FA02B0E1
:1023000080BD80B582B0019000910199481C0B31CD
:10231000FEF7F4FA0198401C00990A22FEF740FBF0
:102320000199481C0B31FEF773FA02B080BD80B5ED
:1023300084B0039002A90191F52008700398400A27
:1023400080B2FEF7B5FA019903980122FEF728FB47
:102350000398400A80B2FEF739FA04B080BD81B01C
:102360000090009900200871C8708870487008704B
:1023700001B0704780B582B001900198FFF7E6FA8E
:1023800002B080BD80B58AB0099009987D21C9004E
:102390000091FEF7BDF8009908900998FEF7B8F88B
:1023A000079100F051F806902248006805902248F5
:1023B00000680490FFF79EF82049FEF7A9F8039003
:1023C0000598049940180190099903984843049985
:1023D000FEF79EF80198401A0499FEF799F80291C9
:1023E0000698079A03995143884204D2FFE7089858
:1023F000401C0890FFE7FFE700F026F80699401A16
:102400000899884208D1FFE70A4800680299884283
:1024100001D2FFE70BE009E000F016F80699401A38
:102420000899884201D3FFE701E0FFE7E4E70AB03B
:1024300080BDC04618E000E014E000E040420F001C
:1024400080B5FFF757F880BD014800687047C04667
:102450000401002080B582B0FFE70120C002FFF731
:10246000D1F8002801D0FFE7F7E700200190FFF73F
:10247000C3F90198FFF790F80198FFF781F9FFF78A
:1024800039F8FFF75BFA02B080BD80B5FFF732F88C
:10249000FEF7D8FE80BD000080B582B01A480190DA
:1024A00001680648884701980168054888470198EF
:1024B00001680448884702B080BDC0464439000026
:1024C000583900006C39000080B584B00E48029085
:1024D00001680E4800908847029801680C480190F6
:1024E0008847029801680B48039088470098029932
:1024F000C968884701980299C96888470299039872
:10250000C968884704B080BD64380000F038000016
:10251000C8380000DC38000080B586B0059005980A
:10252000002804D0FFE7059838490860FFE73849DC
:102530000868384A10430860FEF744F90120002873
:102540001AD1FFE7FFE73148016833480390884715
:1025500003980B21C180052101F0CCF803990B30C1
:1025600008721120C00202902C49FFF7B8FE0298B1
:102570000399FFF7C6FEFFE729491120C002086052
:10258000FFE727480068017804A801700078FF2859
:102590001BD1FFE722480068411C1F4801900A2216
:1025A000FDF7ACFD0198052101F0A4F801990B306D
:1025B000C0B2097A884207D1FFE71748C0880B28C4
:1025C00002D1FFE706B080BDBDE704A80078F5287A
:1025D00001D0FFE7B7E7124801680B3101600068DE
:1025E0000B30000C00280CD1FFE70D480068000CF0
:1025F000002806D1FFE70A480068C00A102801D861
:10260000FFE7A0E7FFE7FFE7BBE7C04604000020C5
:102610003040004002005A5A800000200B88000021
:102620005C00002080B58CB0002000900B900A90D8
:10263000099008900790069001F07AF81020012187
:102640000491FEF727FF04990820FEF723FF009A64
:102650000498E1214902069106A901918A80CA8065
:10266000134B08938A81CA810A828A824882114860
:10267000FFF7ECFA0199032048820F480290FFF718
:10268000E5FA029804210391FFF7F4F902980399FF
:10269000049AFFF783FA1B200590FFF70BFD0499BE
:1026A0000598FFF771FD0598FFF71AFD0CB080BD86
:1026B000006CDC0200100040000C004080B5644853
:1026C0000068804780BDC04680B50248016801208F
:1026D000884780BD8438000080B584B007480090EA
:1026E0000168002088470098416802A80190884747
:1026F00001980349FFF7D8FD04B080BD58380000A9
:102700009500002080B584B01748816802A8019028
:1027100088470198007807210091FDF7F9FE009B9A
:1027200001980A4605490A7042781A404A70807832
:10273000421E9041887004B080BDC0469A000020BF
:1027400080B584B00748006880470748816802A8C0
:10275000019088470198C078032108400349087018
:1027600004B080BDA43800001C3800009D0000208B
:1027700080B584B033484068804733490968401ABF
:102780000B285CD3FFE72F48406880472E4908603C
:102790002E4800900078401C0A21FDF7B9FE0098F1
:1027A00001702B4949680078032242432948801868
:1027B000884702A900200870FFE702A800780228D5
:1027C0003CD8FFE703A90120087001A90870FFE7C2
:1027D00001A8007809281CDCFFE701A802781D4841
:1027E00002A90B78032151434118C818C01E007874
:1027F00001221040C95C1140884204D0FFE703A9C0
:1028000000200870FFE7FFE70198401C01A908704D
:10281000DEE703A80078C007002809D0FFE702A878
:1028200002780C48805C0C49012318408854FFE76B
:10283000FFE70298401C02A90870BEE7FFE704B05A
:1028400080BDC046AC380000A4000020600000201D
:102850007C380000610000208A00002080B588B02C
:10286000FC4840688047FC490968401A032800D2A8
:10287000BDE2F84840688047F7490860F74881683A
:1028800007A805908847F648816806A88847F54854
:102890000490C168002088470498C16801208847D7
:1028A0000498C168022088470498C16803208847BB
:1028B0000498C168042088470498C16805208847A7
:1028C0000498C168062088470498C1680720884793
:1028D00005988078002800D0B0E007A8007800288C
:1028E00005D1FFE7DF48816803208847A5E007A8F6
:1028F0000078012805D1FFE7DA488168022088477F
:102900009AE007A80078022805D1FFE7D54881683A
:10291000012088478FE007A80078032805D1FFE74A
:10292000D04881680020884784E007A80078042800
:1029300026D1FFE7CB48816803208847C548406817
:102940008047C9490968FDF7E3FDC007002805D1A4
:10295000FFE7C44881680220884710E0BD4840680E
:102960008047C1490968FDF7D3FDC007002805D09D
:10297000FFE7BC48816801208847FFE7FFE758E090
:1029800007A80078052827D1FFE7B648816802200C
:102990008847B04840688047B3490968FDF7B8FDEB
:1029A000C007002805D1FFE7AE48816801208847AD
:1029B00011E0A84840688047AB490968FDF7A8FDC9
:1029C00003210840012805D1FFE7A64881680320BC
:1029D0008847FFE7FFE72BE007A80078062826D105
:1029E000FFE7A0488168012088479A4840688047EF
:1029F0009D490968FDF78CFDC007002805D1FFE758
:102A0000FD4881680220884710E0FA484068804706
:102A1000FA490968FDF77CFDC007002805D0FFE7EB
:102A2000F548816803208847FFE7FFE7FFE7FFE7F6
:102A3000FFE7FFE7FFE7FFE7FFE7A9E107A8407827
:102A400000280AD1FFE7EC480390816802208847FC
:102A5000039881680320884799E107A840780128F6
:102A60000AD1FFE7E4480290816800208847029875
:102A700081680120884789E107A84078022812D19F
:102A8000FFE7DD4801908168002088470198816850
:102A90000120884701988168022088470198816851
:102AA0000320884771E107A84078032847D1FFE752
:102AB000F24840688047D1490968FDF729FD800741
:102AC000002805D1FFE7CC4881680020884735E021
:102AD000EA4840688047C9490968FDF719FD0321A4
:102AE0000840012805D1FFE7C348816801208847D5
:102AF00023E0E24840688047C0490968FDF708FDC7
:102B000003210840022805D1FFE7BB488168022065
:102B1000884711E0D94840688047B8490968FDF7FF
:102B2000F7FC03210840032805D1FFE7B24881687C
:102B300003208847FFE7FFE7FFE7FFE724E107A857
:102B40004078042840D1FFE7AB48816803208847DC
:102B5000CA4840688047A9490968FDF7D9FC014681
:102B6000A7484843A749884205D8FFE7A24881689B
:102B70000120884727E0C148406880479F4909688D
:102B8000FDF7C6FC411E9E4848439F49884205D830
:102B9000FFE7994881680220884713E0B7484068FA
:102BA000804796490968FDF7B3FC811E9448484365
:102BB0009549884205D8FFE78F48816800208847FB
:102BC000FFE7FFE7FFE7DEE007A8407805284DD1E3
:102BD000FFE78948816802208847FA4840688047B3
:102BE00086490968FDF794FC0146854848438549B4
:102BF000884205D8FFE7804881680020884727E0A1
:102C0000F048406880477D490968FDF781FC411E16
:102C10007B4848437C49884205D8FFE7764881686D
:102C20000120884713E0E7484068804773490968F6
:102C3000FDF76EFC811E724848437349884205D8EF
:102C4000FFE76D48816803208847FFE7FFE7FFE75C
:102C500098E0C046AC380000A800002034380000DE
:102C60004C380000843800000C00002007A8407891
:102C7000062840D1FFE76048816801208847D14895
:102C8000406880475D490968FDF742FC01465C48A1
:102C900048435C49884205D8FFE7574881680020CF
:102CA000884727E0FB484068804754490968FDF79A
:102CB0002FFC411E524848435349884205D8FFE73C
:102CC0004D4881680220884713E0F24840688047F9
:102CD0004A490968FDF71CFC811E494848434A4996
:102CE000884205D8FFE74448816803208847FFE70A
:102CF000FFE7FFE745E007A84078072840D1FFE756
:102D00003D48816800208847E248406880473B4949
:102D10000968FDF7FDFB01463948484339498842B7
:102D200005D8FFE7344881680320884727E0D94861
:102D30004068804731490968FDF7EAFB411E304889
:102D400048433149884205D8FFE72B488168012074
:102D5000884713E0CF484068804728490968FDF755
:102D6000D7FB811E264848432749884205D8FFE7FC
:102D70002148816802208847FFE7FFE7FFE7FFE778
:102D8000FFE7FFE7FFE7FFE7FFE7FFE7FFE7FFE713
:102D900006A80078002805D1FFE7174881680420BD
:102DA000884720E006A80078012805D1FFE71248EF
:102DB00081680520884715E006A80078022805D11B
:102DC000FFE70D488168062088470AE006A80078DA
:102DD000032805D1FFE70848816807208847FFE7F7
:102DE000FFE7FFE7FFE7044840688047FFE708B0D8
:102DF00080BDC046AC380000843800000C000020C4
:102E0000ABAAAAAA555555555455555580B588B005
:102E1000A048406880471A490968401A65282BD3A2
:102E2000FFE79C484068804715490860154881685D
:102E300007A8009088471448816806A8884700982A
:102E4000079AEE4903910A7042784A708078887038
:102E50000698C87004A80290FFF70BFA02980B4975
:102E600001918968884701990298496888470298C2
:102E70000399FFF719FAFFE708B080BDAC380000EE
:102E8000AC000020343800004C38000058380000F6
:102E900080B586B004A9002008707E48406880474D
:102EA00049490968401A332800D288E079484068C7
:102EB0008047454908607948816805A8039088479C
:102EC00003980078C00700280AD0FFE705A84078DB
:102ED000C007002804D0FFE73C490120087015E036
:102EE00005A801780120C9070029029004D1FFE755
:102EF00005A840780290FFE70298C007002804D197
:102F0000FFE7324900200870FFE7FFE72F4800780D
:102F1000C007002834D1FFE705A80078C0070028C3
:102F200016D0FFE72A480078C007002810D1FFE735
:102F3000B94801900078401C0721FDF7E9FA0846DE
:102F4000019908700020887004A901200870FFE72B
:102F500005A84078C007002811D0FFE71C4840783A
:102F6000C00700280BD1FFE7F7494878401C07222B
:102F7000104048700120887004A90870FFE7FFE73F
:102F800004A80078C007002810D0FFE700F0BCF9C3
:102F90000246104801210091FEF758FA00F0B4F9FA
:102FA000009902460C48FEF751FAFFE708490598D8
:102FB000087005A882788A7040784870FFE706B0EC
:102FC00080BDC046AC380000B000002008000020E2
:102FD0009E00002000100040000C004080B582B030
:102FE0002C48406880472C490968401A33284FD341
:102FF000FFE72848406880472749086027488168DC
:1030000001A80090884700988078C00700280DD05C
:10301000FFE723480078C007002807D1FFE783496E
:103020000878401C032210400870FFE77F480078B2
:10303000002805D1FFE71B4841680020884720E0B1
:103040007A480078012805D1FFE716484168012039
:10305000884715E075480078022805D1FFE7114838
:103060004168022088470AE070480078032805D1AB
:10307000FFE70C48416803208847FFE7FFE7FFE7C9
:10308000FFE701A880780121084005490870FFE7A3
:1030900002B080BDAC380000B40000202838000029
:1030A00009000020A438000080B586B0014605A8BC
:1030B000017000780490032844D80498810001A08E
:1030C00040588746D5300000F13000000D31000037
:1030D00029310000D8480390C1681B4888470398ED
:1030E000C1681A488847039881681948884729E0C9
:1030F000D1480290C16814488847029881681348F3
:1031000088470298C168124888471BE0CA48019066
:1031100081680D488847019881680C488847019864
:10312000C1680B4888470DE0C34800908168064895
:1031300088470098C1680548884700988168044816
:103140008847FFE706B080BDF0380000C8380000AF
:10315000DC38000080B582B00190B748009041692A
:103160000C488847014600984A425141019A117023
:10317000416909488847014600984A425141019AED
:10318000517041690548884741424841019988701A
:1031900002B080BD44390000583900006C3900008D
:1031A00080B582B00190019854490522FCF7A6FF32
:1031B00002B080BD81B000900099044882788A7086
:1031C00042784A700078087001B070478A00002089
:1031D00080B582B00190019802490822FCF78EFF69
:1031E00002B080BD8D00002080B582B001900198B2
:1031F00002490522FCF782FF02B080BD9500002045
:1032000081B000900099504882788A7042784A7064
:103210000078087001B070479A00002081B00090DB
:10322000009902480078087001B070479D000020A6
:1032300080B584B00390039930480522FCF770FFF5
:10324000002801D1FFE757E02D4802900068FFF702
:103250006EF8029801680B31016000680B30000CB9
:1032600000280CD1FFE726480068000C002806D192
:10327000FFE723480068C00A102805D8FFE7204967
:103280001120C0020860FFE71D480068C005002843
:1032900016D0FFE71A490868400A09680B31490A45
:1032A00088420CD0FFE716490868164A10400122F0
:1032B0005202801809680B31FFF711F8FFE706E0AA
:1032C0000F49086809680B31FFF709F8FFE7039910
:1032D0000A48019005220092FCF710FF009901981E
:1032E0000B22C28000F006FA01990B3008720448E4
:1032F0000068FFF706F8FFE704B080BD80000020FB
:103300005C00002000FEFFFF80B582B00E48807890
:1033100000280AD0FFE70C484178072001400B48FD
:103320004018007A01A9087009E0074800780721D1
:10333000FDF7EEF80548405C01A90870FFE701A819
:10334000007802B080BDC0469A000020803900009D
:103350000920C10608680222104308607047000077
:103360001648022202600920C106086890430860DE
:103370007047C0460920C106086802221043086051
:10338000704700001748022202600920C106086841
:10339000904308607047C0460920C10608680122B2
:1033A00010430860704700000448012202600920B1
:1033B000C1060868904308607047C046580000483E
:1033C0000920C10608680122104308607047000008
:1033D0000448012202600920C10608689043086081
:1033E0007047C0465C00004880B584B003A90291D4
:1033F00008701148019001681048884701980168D9
:103400000F488847019801680E488847019801686D
:103410000D48884702984C4A0021D1719171517131
:103420001171D170917051701170007801210840B4
:103430003E49087004B080BD643800009039000037
:10344000A4390000243A0000383A000081B0014657
:103450006846017002783C490020885401B07047EA
:1034600081B00146684601700278374901208854CE
:1034700001B0704781B0014668460170017832485A
:10348000405C01B07047C04680B588B024480490C5
:103490000178491C012211400170017821480590F2
:1034A000425CD10020480690401827490791895C6A
:1034B000890040588047049B059A069807991B7815
:1034C000D2189278D300C018895C89004058804790
:1034D00016480078C00700281FD0FFE7104800906A
:1034E00001781048019040180279D1000E480290EE
:1034F000401815490391895C890040588047009B1A
:10350000019A029803991B78D2189279D300C018B7
:10351000895C890040588047FFE708B080BDC046FD
:10352000FB000020B83900001000002058000020E7
:1035300081B001466846017002780349885C4342C5
:103540005841885401B07047FC0000209D4908682C
:1035500020221043086070471148202202609949D8
:103560000868904308607047964908682022104315
:103570000860704712482022026092490868904310
:10358000086070478F490868402210430860704700
:103590000348402202608B490868904308607047E6
:1035A0005801004887490868402210430860704766
:1035B00003484022026083490868904308607047CE
:1035C0005C01004880B582B000200190144800687A
:1035D00080471448006880471348006880471348B4
:1035E000006880471248006880471248006880479A
:1035F000114800688047114800688047FFE70A4883
:10360000406880470A4840688047084840688047CB
:10361000084840688047084840688047EFE7C04650
:103620009C380000AC3800001C3800004038000016
:1036300028380000343800004C380000BC38000046
:1036400080B584B00390029101A8028002980028FE
:1036500005D0FFE701A80088002801D1FFE729E095
:10366000694600200880FFE76846008801A90988AC
:10367000884216DAFFE7FFE703980121FEF72CFAEC
:10368000002801D1FFE7F7E7039802996A461288FC
:10369000895CFEF7E3FCFFE70098401C6946088060
:1036A000E2E7FFE703980221FEF716FA002801D1AE
:1036B000FFE7F7E704B080BD80B582B001906846AF
:1036C0000170FFE701980121FEF706FA002801D1F9
:1036D000FFE7F7E7019869460978FEF7BFFCFFE7C7
:1036E00001980221FEF7F8F9002801D1FFE7F7E77A
:1036F00002B080BD84B00390029101A9002008703F
:103700000090FFE70098029988420CD2FFE70398E7
:103710000099415C0198401801A90870FFE70098E2
:10372000401C0090EEE701A8007804B0704700004C
:10373000B0B588B000200790069005901E49086833
:103740001E4A1043086008681D4A104308600220A2
:1037500005902020029006901A48019005A9039137
:10376000FDF798FC01980399012404940594112213
:103770000692FDF78FFC02980399134B1A681025E7
:103780002A436025AA431A601A6822430624A243EA
:103790001A600822059206900920C006FDF77AFCFF
:1037A000049A0A49086807231B03984312038018E8
:1037B000086008B0B0BDC0463040004020005A5AF2
:1037C00010005A5A0001004818010048180000482B
:1037D0002021020C01D010211046020A01D010460F
:1037E0000839020901D01046091F820801D010468D
:1037F000891E420801D0881E7047081A704702E0EF
:1038000008C8121F08C1002AFAD17047704700206B
:1038100001E001C1121F002AFBD17047D926000028
:103820000D2E0000E9310000BD26000071270000C8
:10383000B531000005270000912E00000132000084
:10384000C92600005D280000D1310000412700009A
:10385000DD2F00001D32000019250000A1310000FD
:10386000313200006D0A0000590A000023100000E8
:103870000D10000039100000F50F00009924000021
:1038800055310000E9330000893400006134000044
:103890004D3400003135000075340000552400001F
:1038A00041240000C9240000A93000008B2400003E
:1038B0004924000085230000752300002526000010
:1038C00041360000B936000040000000000000480A
:1038D00001020000000000000000000008000000DD
:1038E000000100480102000000000000000000008C
:1038F0000400000000010048010200000000000078
:1039000000000000100000000100000002000000A4
:103910000300000004000000050000000600000095
:103920000700000008000000090000000A00000075
:103930000B0000000C0000000D0000000E00000055
:103940000F00000010000000000000480000000010
:1039500000000000000000002000000000000048FF
:103960000000000000000000000000001000000047
:1039700000010048000000000000000000000000FE
:10398000010203040506070008090A0B0C0D0E0FBF
:1039900002000000000000480002000000000000DB
:1039A00000000000010000000000004800020000CC
:1039B00000000000000000000001020304050607EB
:1039C0002E2E2F6D63755F6C69622F7372632F6388
:1039D0007733326C3031305F666C6173682E630010
:1039E0002E2E2F6D63755F6C69622F7372632F6368
:1039F0007733326C3031305F7379736374726C2E4D
:103A000063002E2E2F6D63755F6C69622F73726376
:103A10002F637733326C3031305F756172742E638F
:103A2000000000002000000000010048000200002B
:103A300000000000000000004000000000010048FD
:103A4000000200000000000000000000703A0000CA
:103A50000000002058000000FE370000C83A0000B7
:103A600058000020B00400000E38000000000000E4
:103A700000093D005F230000010100006400000018
:103A800051330000613300007533000085330000BE
:103A900099330000A9330000C1330000D133000086
:103AA0004D350000593500006935000075350000BE
:103AB0008535000091350000A5350000B1350000C6
:083AC0000100000004000000F9
:04000005000000C136
:00000001FF
