:020000040000FA
:1000000008050020D5000000E3000000E500000026
:1000100000000000000000000000000000000000E0
:10002000000000000000000000000000E7000000E9
:100030000000000000000000E9000000991000002E
:10004000ED000000ED000000ED000000ED000000FC
:10005000ED000000ED000000ED00000000000000D9
:100060000000000000000000000000000000000090
:10007000ED000000ED000000ED000000ED000000CC
:10008000ED0000000000000000000000ED00000096
:10009000ED000000ED000000ED000000ED000000AC
:1000A00000000000ED00000000000000ED00000076
:1000B000ED0000000000000000000000ED00000066
:1000C0000348854600F058F800480047D525000051
:1000D0000805002006490868854606488047064806
:1000E0000047FEE7FEE7FEE7FEE7FEE7FEE700006B
:1000F00000000000BD100000C100000003460B43DB
:100100009B0703D009E008C9121F08C0042AFAD2CD
:1001100003E00B780370401C491C521EF9D2704753
:1001200030B504460020034600E05B1C934203D236
:10013000E05CCD5C401BF8D030BD70B504460029B2
:1001400003D000202022012310E0002801D000204D
:10015000C043C046C0460DE02546D5408D4205D37C
:100160000D469540641B1D46954040191546521E8C
:10017000002DF1DC214670BD1CB5094800900948EE
:10018000019005460126009C05E0E36807CC334357
:100190000C3C98471034AC42F7D3FFF795FF0000B2
:1001A000282900004829000084B00290019102A88B
:1001B0004088002805D1FFE701A84088002804D026
:1001C000FFE703A98020087036E0FFE7BD4800681C
:1001D0008006C00F002801D0FFE7F7E7BA490020EA
:1001E0000860BA490A68684602800088144A1043C9
:1001F0000860FFE702980199884212D8FFE7029948
:1002000000200860FFE7AF4800688006C00F0028A4
:1002100001D0FFE7F7E70298012149024018029058
:10022000E8E768460088AB494018A8490860A54837
:10023000006803A90870FFE703A8007804B07047BE
:1002400002005A5A7549A3480860704780B582B0C9
:10025000014601A8018000884649884201DCFFE789
:1002600005E04548BD21490000F0C2FFFFE76B49AA
:100270000A68684602800088964A801801AA128897
:10028000D30801229A4090430860002002B080BD4C
:1002900086B00490039102A9002008800398049975
:1002A000884204D2FFE705A9802008703CE004A83A
:1002B0004088002805D1FFE703A84088002804D023
:1002C000FFE705A9802008702EE0FFE70498039956
:1002D000884211D8FFE70498010B01A8018000882B
:1002E00001210A4682400298104302AA1080049815
:1002F000490240180490E9E702A80088002804D1C8
:10030000FFE705A9802008700EE044490A686846A6
:10031000028000886F4A801802AA12889043086001
:1003200005A900200870FFE705A8007806B070470F
:1003300080B582B0014601A8018000880D4988423D
:1003400001DCFFE704E00C487D2100F051FFFFE7EE
:1003500032490A6868460280008801AA1288D308D8
:1003600001229A4010435B4A10430860002002B00B
:1003700080BDC046FF010000BC28000086B004908C
:10038000039101A90020088004980399884204D9A8
:10039000FFE705A9802008703CE004A840880028F9
:1003A00005D1FFE703A84088002804D0FFE705A98E
:1003B000802008702EE0FFE704980399884211D846
:1003C000FFE70498010B68460180008801210A4676
:1003D00082400198104301AA1080049849024018F5
:1003E0000490E9E701A80088002804D1FFE705A9E7
:1003F000802008700EE009490A6802A8028000887F
:1004000001AA12881043334A8018086005A9002009
:100410000870FFE705A8007806B070470820024082
:1004200085B00390029101A90A80039809884018B9
:10043000401E000C002804D0FFE704A980200870AB
:100440003CE0FFE71F4800688006C00F002801D08D
:10045000FFE7F7E71C49002008601C490A68684666
:10046000028000881A4A10430860FFE701A800884C
:10047000002818D0FFE70298007803990870FFE77A
:10048000104800688006C00F002801D0FFE7F7E79A
:100490000398401C03900198401E01A9088002980F
:1004A000401C0290E2E7684600880A494018074964
:1004B00008600448006804A90870FFE704A80078F1
:1004C00005B070472420024028200240002002404E
:1004D00001005A5A00005A5A80B582B00190019921
:1004E0004868096800F0F2FA02B080BD80B588B0B3
:1004F0000790002006900590049003A908700290D0
:10050000FFE702980F280ED8FFE7079800680299C6
:10051000C840C007002801D0FFE704E0FFE70298C9
:10052000401C0290EDE70298102801D3FFE79AE201
:10053000079800F02DFE002801D1FFE793E207980D
:10054000007A0190092800D944E20198810001A0B5
:10055000405887467D050000DD0500004906000083
:10056000DF060000750700000B080000950800007A
:10057000A3080000090900006F090000079802683D
:100580004168C8699043C861079802684168086873
:1005900010430860079802684168486A90434862BF
:1005A000079802684168886A904388620298072821
:1005B00009D8FFE702980F228240079841688869AE
:1005C0009043886109E0029808380F22824007981A
:1005D0004168486990434861FFE7FCE10798026879
:1005E0004168C8699043C861079802684168086813
:1005F00090430860079802684168486890434860E3
:10060000079802684168486A904348620798026800
:100610004168886A904388620298072809D8FFE7F2
:1006200002980F2282400798416888699043886148
:1006300009E0029808380F2282400798416848690B
:1006400090434861FFE7C6E1079802684168C869BE
:100650009043C86107980268416808689043086041
:100660000798026841684868104348600798026824
:100670004168486A90434862079802684168886AFE
:10068000904388620298072813D8FFE702980F2248
:100690008240079841688869904388610798026999
:1006A00007210A4002998A4041688869104388619D
:1006B00014E0029808380F22824007984168486980
:1006C000904348610798026907210A400299083956
:1006D0008A404168486910434861FFE77BE1079819
:1006E00002684168C8699043C86107980268416818
:1006F000086890430860079802684168486890431A
:100700004860079802684168486A904348620798C1
:1007100002684168886A904388620298072813D863
:10072000FFE702980F22824007984168886990434A
:1007300088610798026907210A4002998A40416846
:1007400088691043886114E0029808380F228240BB
:1007500007984168486990434861079802690721F2
:100760000A40029908398A40416848691043486143
:10077000FFE730E1079802684168C8699043C861A3
:100780000798026841680868904308600798026803
:100790004168486810434860079802684168486AA1
:1007A00090434862079802684168886A904388626B
:1007B0000298072813D8FFE702980F228240079873
:1007C00041688869904388610798026907210A4057
:1007D00002998A40416888691043886114E0029850
:1007E00008380F2282400798416848699043486161
:1007F0000798026907210A40029908398A4041682E
:10080000486910434861FFE7E5E0079802684168DE
:10081000C8699043C8610798026841680868104336
:100820000860079802684168486A904348620798E0
:1008300002684168886A904388620298072813D842
:10084000FFE702980F228240079841688869904329
:1008500088610798026907210A4002998A40416825
:1008600088691043886114E0029808380F2282409A
:1008700007984168486990434861079802690721D1
:100880000A40029908398A40416848691043486122
:10089000FFE7A0E0079802684168C8691043C86193
:1008A00099E0079802684168C8699043C861079851
:1008B0000268416808681043086007980268416848
:1008C000486A10434862079802684168886A904302
:1008D00088620298072809D8FFE702980F22824011
:1008E0000798416888699043886109E00298083850
:1008F0000F22824007984168486990434861FFE7AA
:1009000003A90120087066E0079802684168C86979
:100910009043C861079802684168086810430860FE
:10092000079802684168486A9043486207980268DD
:100930004168886A104388620298072809D8FFE74F
:1009400002980F2282400798416888699043886125
:1009500009E0029808380F228240079841684869E8
:1009600090434861FFE703A90120087033E007982E
:1009700002684168C8699043C86107980268416885
:10098000086810430860079802684168486A104385
:100990004862079802684168886A10438862029832
:1009A000072809D8FFE702980F228240079841687C
:1009B00088699043886109E0029808380F228240D4
:1009C00007984168486990434861FFE703A90120FF
:1009D000087000E047E00798407A0090002804D0B3
:1009E000FFE70098022807D00DE0079802684168E9
:1009F00008691043086107E00798026841680869C0
:100A00009043086100E02EE003A80078002810D091
:100A1000FFE70298810015484058002801D0FFE701
:100A200021E00798C06802998A0010498850FFE7C2
:100A3000FFE70798007A012805D0FFE70798007ABA
:100A4000022810D1FFE707980069002805D0FFE7CA
:100A5000074881680798884704E00548C1680798F7
:100A60008847FFE7FFE708B080BDC046B800002018
:100A7000E426000080B582B0019001994868098899
:100A800000F047F8411E884102B080BD80B582B0B9
:100A90000190019948680988002200F05CF802B0D2
:100AA00080BD80B582B00190019948680988012213
:100AB00000F051F802B080BD80B582B0019001997C
:100AC0004868098800F03EF802B080BD82B001900D
:100AD0000091009A0199C8691043C861009A019970
:100AE000086810430860009A0199086990430861FA
:100AF000009A0199486A90434862009A0199886A6D
:100B000090438862009A019948689043486002B017
:100B1000704784B0009101460098029101A90880B5
:100B20000298006D0988084204D0FFE703A901205C
:100B3000087003E003A900200870FFE703A800780D
:100B400004B0704782B00190684601800088019926
:100B5000086602B0704783B0029001A80180684621
:100B600002700078012805D1FFE701A800880299EA
:100B7000C86504E001A8008802998865FFE703B012
:100B800070470000014800687047C046040100201B
:100B900080B584B00390039802900D4801787D20C1
:100BA000C000FFF7CAFA01460298FFF7C6FA00F044
:100BB0004FFA002801D0FFE708E000210191C84367
:100BC00000F0A4FA019803490860FFE704B080BD73
:100BD000500000205400002080B584B00020039015
:100BE00002900190B94800680721084002909A4895
:100BF00000684004000F019002980090042822D859
:100C00000098810001A040588746C046210C000092
:100C1000330C0000470C0000390C00003F0C0000B2
:100C200001988100134841581348FFF786FA039052
:100C300012E00F4803900FE00C4803900CE00120F5
:100C4000C003039008E0019881000A4841580A480F
:100C5000FFF773FA0390FFE70398EC490968090668
:100C6000490FC8400390039804B080BD2080000065
:100C70000024F400C0270000006CDC0280B582B0C4
:100C80000190019800281CD0FFE70198202818D077
:100C9000FFE70198402814D0FFE70198602810D0A2
:100CA000FFE7019880280CD0FFE70198A02808D022
:100CB000FFE70198C02804D0FFE70198E02801D1A0
:100CC000FFE704E0CE48342100F092FAFFE7CF4975
:100CD0000868044A1040019A1043CD4A1043086046
:100CE00002B080BD1FFF000080B584B0029001A952
:100CF0005648088002980121C902884258D0FFE76F
:100D0000029801210903884252D0FFE7029803218B
:100D1000C90288424CD0FFE702980121490388426A
:100D200046D0FFE702980521C902884240D0FFE77C
:100D300002980321090388423AD0FFE7029807216D
:100D4000C902884234D0FFE7029801218903884212
:100D50002ED0FFE702980921C902884228D0FFE778
:100D6000029805210903884222D0FFE702980B214F
:100D7000C90288421CD0FFE7029803214903884238
:100D800016D0FFE702980D21C902884210D0FFE774
:100D900002980721090388420AD0FFE702980F2131
:100DA000C902884204D0FFE70298002801D1FFE77A
:100DB00005E093488D21490000F01AFAFFE70298F8
:100DC0000121C90288420DD1FFE790480068400721
:100DD000002806D1FFE71E4908681E4A1043086034
:100DE000FFE7FFE70298C1490988C24A114008435A
:100DF000BF49086019490868194A10430860FFE7AD
:100E0000BB480168002009040029009006D4FFE7D0
:100E100001A80088411E88410090FFE70098C007A4
:100E2000002805D0FFE70198401E01A90880E7E7E8
:100E300001A80088002803D1FFE70120039002E009
:100E400000200390FFE7039804B080BDFFFF00007F
:100E50000840004010005A5A18400040044000402A
:100E600001005A5A80B582B00190019800281CD028
:100E7000FFE70198202818D0FFE70198402814D0F8
:100E8000FFE70198602810D0FFE7019880280CD078
:100E9000FFE70198A02808D0FFE70198C02804D0F8
:100EA000FFE70198E02801D1FFE704E054483E2124
:100EB00000F09EF9FFE755490868054A1040019A7D
:100EC0001043534A1043086002B080BD0040004008
:100ED000E7FF000080B584B00290029800280CD093
:100EE000FFE70298012808D0FFE70298032804D002
:100EF000FFE70298042801D1FFE704E04048414998
:100F000000F076F9FFE70298019004280ED80198C6
:100F1000810001A0405887462F0F0000510F0000AC
:100F20002D0F0000670F00008B0F0000FFE7364811
:100F30000068C007002807D0FFE7334800680005B5
:100F4000C00F002803D1FFE70120039055E03CE0EB
:100F50002D480068C004C00F002803D1FFE701201E
:100F600003904AE031E0284800680007C00F0028DD
:100F700007D0FFE7244800684004C00F002803D1D1
:100F8000FFE70120039038E01FE01F48006880065B
:100F9000C00F012815D0FFE71B480068C006C00F2E
:100FA00000280ED0FFE7184800680004C00F002892
:100FB00007D0FFE7144800688006C00F002803D060
:100FC000FFE70120039018E0FFE71049009108684F
:100FD0000F4A10430F4A1040029A10430860FFF76F
:100FE000FBFD00F019F800980068072108400299FD
:100FF000401A411E88410390FFE7039804B080BD6A
:10100000DC280000070200001040004000400040C3
:1010100000005A5AF8FF5A5A81B0009000982549AA
:10102000086001B07047C04680B584B00390FFF7F8
:10103000A9FD029003980190FFE7FFF7A3FD029935
:10104000401A0199884201D2FFE7F6E704B080BD5B
:1010500080B584B002900298401E000E002803D094
:10106000FFE70120039011E00298401ED449086078
:1010700000200190C043032100F048F80198CF49B7
:101080000860044A072111600390FFE7039804B049
:1010900080BDC04610E000E003480278CE490868F1
:1010A000801808607047C04650000020014902487F
:1010B000086070470000002000093D0080B50B4823
:1010C00002880B4908680B4B1A400B4B18408018DC
:1010D00008600A4802880A4908680A4B1A400A4B05
:1010E000184080180860FFF7E1FF80BDC0071000BE
:1010F00018400040FF07000000F8FFFFC207100083
:1011000020400040FF03000000FCFFFF70B582B0EC
:10111000024601A80270009100214056002816D412
:10112000FFE7002401A908570322D3431840174AB8
:10113000805809578C07E50EFF24AC40A043009C63
:10114000A401E4B2AC402043194088501AE001A940
:1011500008780F24204008380322D34318400A4A55
:101160008058002549578D07EE0EFF25B540A8434E
:10117000009DAD01EDB2B54028432140083919402A
:101180008850FFE702B070BD1CED00E000E400E015
:1011900083B001900198406800900921C9068842F7
:1011A00005D0FFE700980E49884206D00BE00D49B4
:1011B00008680E4A1043086009E00A4908680A4AAC
:1011C0001043086003E002A90020087003E002A9B0
:1011D00001200870FFE702A8007803B07047C046FE
:1011E000000100483040004020005A5A10005A5A6E
:1011F00082B00190009102B0704782B001900091DE
:101200000098007901210840019908710098007840
:10121000019908700098407801994870009880788A
:10122000019988700098C0780199C87002B0704721
:1012300082B00190009101980079411E8841009987
:101240000871019800780099087001984078009919
:10125000487001988078009988700198C07800994A
:10126000C87002B0704780B582B0019000910198BB
:101270000099FFF783F801980099FEF795FF019810
:101280000099FFF705F802B080BD80B582B00190EB
:1012900000910199481C0B31FFF770F80198401C30
:1012A00000990A22FFF7BCF80199481C0B31FEF7A0
:1012B000EFFF02B080BD80B584B0039002A9019118
:1012C000F52008700398400A80B2FFF731F80199C1
:1012D00003980122FFF7A4F80398400A80B2FEF7B2
:1012E000B5FF04B080BD81B0009000990020087166
:1012F000C87088704870087001B0704780B582B0BF
:1013000001900198FFF790FE02B080BD80B58AB0D1
:10131000099009987D21C9000091FEF70EFF009900
:1013200008900998FEF709FF079100F051F8069020
:10133000224800680590224800680490FFF74CFCA2
:101340002049FEF7FAFE0390059804994018019091
:101350000999039848430499FEF7EFFE0198401A53
:101360000499FEF7EAFE02910698079A0399514301
:10137000884204D2FFE70898401C0890FFE7FFE787
:1013800000F026F80699401A0899884208D1FFE72C
:101390000A4800680299884201D2FFE70BE009E0A1
:1013A00000F016F80699401A0899884201D3FFE721
:1013B00001E0FFE7E4E70AB080BDC04618E000E0C6
:1013C00014E000E040420F0080B5FFF705FC80BD4F
:1013D000014800687047C0460401002080B582B013
:1013E000FFE70120C002FFF77FFC002801D0FFE7E4
:1013F000F7E700200190FFF76DFD0198FFF73EFC35
:101400000198FFF72FFDFFF7E7FBFFF705FE02B09E
:1014100080BD80B5FFF7E0FBFFF7BAFB80BD0000A1
:1014200080B582B03348019001680648884701982A
:10143000016805488847019801680448884702B058
:1014400080BDC046002800001428000028280000A5
:1014500080B586B0274804900168124801908847FB
:1014600004980168104802908847049801680F4862
:1014700003908847049801680D48059088470198B3
:101480000499C968884702980499C96888470398ED
:101490000499C968884704990598C968884706B0BF
:1014A00080BDC0463C280000502800006428000091
:1014B0007828000080B584B00E48029001680E487C
:1014C00000908847029801680C480190884702986C
:1014D00001680B480390884700980299C9688847BB
:1014E00001980299C968884702990398C968884792
:1014F00004B080BDE42600006C27000044270000F3
:101500005827000080B586B005900598002804D0C3
:10151000FFE7059838490860FFE738490868384A06
:1015200010430860FEF78EFE012000281AD1FFE765
:10153000FFE73148016833480390884703980B213F
:10154000C180052101F07EF803990B30087211204B
:10155000C00202902C49FFF786FE02980399FFF71C
:1015600094FEFFE729491120C0020860FFE72748E1
:101570000068017804A801700078FF281BD1FFE7FC
:1015800022480068411C1F4801900A22FEF7B6FD60
:101590000198052101F056F801990B30C0B2097A83
:1015A000884207D1FFE71748C0880B2802D1FFE720
:1015B00006B080BDBDE704A80078F52801D0FFE79C
:1015C000B7E7124801680B31016000680B30000C6E
:1015D00000280CD1FFE70D480068000C002806D158
:1015E000FFE70A480068C00A102801D8FFE7A0E713
:1015F000FFE7FFE7BBE7C0460400002030400040A3
:1016000002005A5A800000200B8800005C00002075
:1016100080B562480068804780BDC04680B50248FA
:1016200001680120884780BD0C27000080B584B088
:10163000074800900168002088470098416802A888
:101640000190884701980349FFF7F2FD04B080BD7F
:10165000D82600009500002080B584B009480068B5
:1016600080471448816802A8019088470198029A2F
:1016700005490A7042784A708078421E904188700D
:1016800004B080BD042700009A00002080B584B01B
:101690000748006880470748816802A8019088478A
:1016A0000198C078032108400349087004B080BD48
:1016B0002C2700009C2600009D00002080B584B0EF
:1016C00033484068804733490968401A0B285CD387
:1016D000FFE72F48406880472E4908602E48009059
:1016E0000078401C0A21FEF728FD009801702B4964
:1016F000496800780322424329488018884702A994
:1017000000200870FFE702A8007802283CD8FFE715
:1017100003A90120087001A90870FFE701A800785B
:1017200009281CDCFFE701A802781D4802A90B78F4
:10173000032151434118C818C01E007801221040EF
:10174000C95C1140884204D0FFE703A9002008705B
:10175000FFE7FFE70198401C01A90870DEE703A836
:101760000078C007002809D0FFE702A802780C48DB
:10177000805C0C49012318408854FFE7FFE702987A
:10178000401C02A90870BEE7FFE704B080BDC04658
:1017900034270000A400002060000020FC26000088
:1017A000610000208A00002080B588B0FC484068B5
:1017B0008047FC490968401A032800D2BDE2F84876
:1017C00040688047F7490860F748816807A8059096
:1017D0008847F648816806A88847F5480490C1689C
:1017E000002088470498C168012088470498C16890
:1017F000022088470498C168032088470498C1687C
:10180000042088470498C168052088470498C16867
:10181000062088470498C168072088470598807883
:10182000002800D0B0E007A80078002805D1FFE725
:10183000DF48816803208847A5E007A800780128D1
:1018400005D1FFE7DA488168022088479AE007A8B7
:101850000078022805D1FFE7D54881680120884734
:101860008FE007A80078032805D1FFE7D0488168FA
:101870000020884784E007A80078042826D1FFE7E5
:10188000CB48816803208847C54840688047C949DC
:101890000968FEF752FCC007002805D1FFE7C448DD
:1018A00081680220884710E0BD4840688047C149F0
:1018B0000968FEF742FCC007002805D0FFE7BC48D6
:1018C000816801208847FFE7FFE758E007A8007814
:1018D000052827D1FFE7B648816802208847B0482D
:1018E00040688047B3490968FEF727FCC007002815
:1018F00005D1FFE7AE4881680120884711E0A8487C
:1019000040688047AB490968FEF717FC032108408F
:10191000012805D1FFE7A648816803208847FFE733
:10192000FFE72BE007A80078062826D1FFE7A048AC
:101930008168012088479A48406880479D49096826
:10194000FEF7FBFBC007002805D1FFE7FD488168D3
:101950000220884710E0FA4840688047FA49096841
:10196000FEF7EBFBC007002805D0FFE7F5488168CC
:1019700003208847FFE7FFE7FFE7FFE7FFE7FFE711
:10198000FFE7FFE7FFE7A9E107A8407800280AD1B1
:10199000FFE7EC480390816802208847039881683C
:1019A0000320884799E107A8407801280AD1FFE77A
:1019B000E4480290816800208847029881680120ED
:1019C000884789E107A84078022812D1FFE7DD485F
:1019D000019081680020884701988168012088472C
:1019E0000198816802208847019881680320884710
:1019F00071E107A84078032847D1FFE7F248406823
:101A00008047D1490968FEF798FB8007002805D177
:101A1000FFE7CC4881680020884735E0EA48406805
:101A20008047C9490968FEF788FB0321084001285F
:101A300005D1FFE7C34881680120884723E0E248D9
:101A400040688047C0490968FEF777FB03210840DA
:101A5000022805D1FFE7BB4881680220884711E0D2
:101A6000D94840688047B8490968FEF766FB0321FA
:101A70000840032805D1FFE7B24881680320884762
:101A8000FFE7FFE7FFE7FFE724E107A84078042826
:101A900040D1FFE7AB48816803208847CA484068C7
:101AA0008047A9490968FEF748FB0146A748484313
:101AB000A749884205D8FFE7A248816801208847E6
:101AC00027E0C148406880479F490968FEF735FB19
:101AD000411E9E4848439F49884205D8FFE79948E0
:101AE00081680220884713E0B748406880479649DC
:101AF0000968FEF722FB811E9448484395498842B5
:101B000005D8FFE78F48816800208847FFE7FFE797
:101B1000FFE7DEE007A8407805284DD1FFE78948B8
:101B2000816802208847A84840688047864909683C
:101B3000FEF703FB0146854848438549884205D89E
:101B4000FFE7804881680020884727E09E4840687A
:101B500080477D490968FEF7F0FA411E7B484843FB
:101B60007C49884205D8FFE776488168012088478C
:101B700013E0FF484068804773490968FEF7DDFAC3
:101B8000811E724848437349884205D8FFE76D4873
:101B9000816803208847FFE7FFE7FFE798E0C0463A
:101BA00034270000A8000020B4260000CC26000046
:101BB0000C2700000C00002007A84078062840D120
:101BC000FFE76048816801208847E948406880470E
:101BD0005D490968FEF7B1FA01465C4848435C4933
:101BE000884205D8FFE7574881680020884727E0EA
:101BF000DF484068804754490968FEF79EFA411E55
:101C0000524848435349884205D8FFE74D48816808
:101C10000220884713E0D648406880474A4909684F
:101C2000FEF78BFA811E494848434A49884205D845
:101C3000FFE74448816803208847FFE7FFE7FFE7A5
:101C400045E007A84078072840D1FFE73D48816874
:101C500000208847FD48406880473B490968FEF7F7
:101C60006CFA0146394848433949884205D8FFE7AC
:101C7000344881680320884727E0F448406880475B
:101C800031490968FEF759FA411E30484843314945
:101C9000884205D8FFE72B4881680120884713E078
:101CA000EA484068804728490968FEF746FA811EDD
:101CB000264848432749884205D8FFE721488168DC
:101CC00002208847FFE7FFE7FFE7FFE7FFE7FFE7BF
:101CD000FFE7FFE7FFE7FFE7FFE7FFE706A800787A
:101CE000002805D1FFE7174881680420884720E0D5
:101CF00006A80078012805D1FFE712488168052071
:101D0000884715E006A80078022805D1FFE70D48AE
:101D10008168062088470AE006A80078032805D1D4
:101D2000FFE70848816807208847FFE7FFE7FFE7EC
:101D3000FFE7044840688047FFE708B080BDC04621
:101D4000342700000C2700000C000020ABAAAAAA30
:101D5000555555555455555580B588B0BB484068C4
:101D600080471A490968401A65282BD3FFE7B7480E
:101D700040688047154908601548816807A80090A9
:101D800088471448816806A888470098079A12492E
:101D900003910A7042784A70807888700698C870FB
:101DA00004A80290FFF729FA02980C49019189686A
:101DB0008847019902984968884702980399FFF774
:101DC00037FAFFE708B080BD34270000AC000020E0
:101DD000B4260000CC26000095000020D826000084
:101DE00070B588B099484068804762490968401AD0
:101DF000332800D2B9E09548406880475D490860C3
:101E00009448816807A80390884703980078C00722
:101E100000280AD0FFE707A84078C007002804D0B0
:101E2000FFE755490120087015E007A80178012057
:101E3000C9070029029004D1FFE707A84078029063
:101E4000FFE70298C007002804D1FFE74A490020B5
:101E50000870FFE7FFE748480078C00700282FD147
:101E6000FFE707A80078C007002813D0FFE7434822
:101E70000078C00700280DD1FFE7414801900078A5
:101E8000401C0721FEF759F9084601990870002007
:101E90008870FFE707A84078C00700280FD0FFE749
:101EA00036484078C007002809D1FFE7EF49487855
:101EB000401C07221040487001208870FFE7FFE7B0
:101EC000EA488078002805D0FFE7E848407804A970
:101ED000087004E0E548007804A90870FFE7E34CC7
:101EE000A07841012748411804AB1A7892008D5C14
:101EF0000122154005A90D70A5786D0145191E78C0
:101F0000B600AD196D7815404D70A5786D01451975
:101F10001E78B600AD19AD7815408D70A4786401B7
:101F200000191B789B00C018C0781040C870164874
:101F30000078C007002807D1FFE744484068804781
:101F40001249884208D3FFE71148416805A888472D
:101F50000D4901200870FFE708490798087007A895
:101F600082788A7040784870FFE708B070BDC0463C
:101F700034270000B0000020080000209E00002050
:101F80009A00002080270000A1000020E903000043
:101F90000427000080B582B02C48406880472C4957
:101FA0000968401A33284FD3FFE728484068804724
:101FB000274908602748816801A800908847009851
:101FC0008078C00700280DD0FFE723480078C007BD
:101FD000002807D1FFE7AA490878401C03221040D7
:101FE0000870FFE7A6480078002805D1FFE71B48E6
:101FF00041680020884720E0A1480078012805D1E9
:10200000FFE7164841680120884715E09C480078A2
:10201000022805D1FFE711484168022088470AE0FD
:1020200097480078032805D1FFE70C484168032052
:102030008847FFE7FFE7FFE7FFE701A88078012176
:10204000084005490870FFE702B080BD3427000052
:10205000B4000020A8260000090000202C27000062
:1020600080B582B0019001980078C007002805D0A3
:10207000FFE7F44881681D48884704E0F148C168DB
:102080001A488847FFE701984078C007002805D024
:10209000FFE7EC4881681648884704E0E948C168D2
:1020A00013488847FFE701988078C007002805D0CB
:1020B000FFE7E44881680F48884704E0E148C168C9
:1020C0000C488847FFE70198C078C007002805D072
:1020D000FFE7DC4881680848884704E0D948C168C0
:1020E00005488847FFE702B080BDC0463C28000095
:1020F00050280000642800007828000080B586B0D1
:10210000014605A8017000780490032844D804987B
:10211000810001A040588746292100004521000088
:10212000612100007D210000C6480390C1681B4862
:1021300088470398C1681A488847039881681948F6
:10214000884729E0BF480290C16814488847029830
:102150008168134888470298C168124888471BE085
:10216000B848019081680D488847019881680C48FB
:1021700088470198C1680B4888470DE0B148009036
:102180008168064888470098C168054888470098D4
:10219000816804488847FFE706B080BD6C270000CF
:1021A000442700005827000080B582B00190A54860
:1021B000009041690C488847014600984A425141C5
:1021C000019A1170416909488847014600984A42BE
:1021D0005141019A5170416905488847414248413F
:1021E0000199887002B080BD00280000142800000A
:1021F0002828000080B582B001900198544905223A
:10220000FDF77CFF02B080BD81B0009000990448CA
:1022100082788A7042784A700078087001B07047FE
:102220008A00002080B582B00190019802490822FE
:10223000FDF764FF02B080BD8D00002080B582B044
:102240000190019802490522FDF758FF02B080BDB8
:102250009500002081B000900099044882788A702F
:1022600042784A700078087001B070479A000020E8
:1022700081B00090009902480078087001B0704762
:102280009D00002080B584B003900399304805225A
:10229000FDF746FF002801D1FFE757E02D480290E7
:1022A0000068FFF708F8029801680B3101600068C8
:1022B0000B30000C00280CD1FFE726480068000C0A
:1022C000002806D1FFE723480068C00A102805D877
:1022D000FFE720491120C0020860FFE71D480068A1
:1022E000C005002816D0FFE71A490868400A0968A7
:1022F0000B31490A88420CD0FFE716490868164A94
:10230000104001225202801809680B31FEF7ABFF22
:10231000FFE706E00F49086809680B31FEF7A3FFE5
:10232000FFE703990A48019005220092FDF7E6FEB7
:10233000009901980B22C28000F084F901990B30BA
:10234000087204480068FEF7A0FFFFE704B080BDF4
:10235000800000205C00002000FEFFFF0920C10675
:1023600008680222104308607047000016480222E5
:1023700002600920C1060868904308607047C046A3
:102380000920C10608680222104308607047000057
:102390001748022202600920C106086890430860BD
:1023A0007047C0460920C106086801221043086032
:1023B000704700000448012202600920C106086835
:1023C000904308607047C046580000480920C10685
:1023D0000868012210430860704700000448012289
:1023E00002600920C1060868904308607047C04633
:1023F0005C00004880B584B003A9029108701148C0
:102400000190016810488847019801680F48884783
:10241000019801680E488847019801680D4888476F
:1024200002984C4A0021D171917151711171D17092
:102430009170517011700078012108403E49087078
:1024400004B080BDE42600008C280000A028000015
:10245000002900001429000081B00146684601707F
:1024600002783C490020885401B0704781B0014691
:1024700068460170027837490120885401B07047DE
:1024800081B001466846017001783248405C01B075
:102490007047C04680B588B0244804900178491C34
:1024A000012211400170017821480590425CD10061
:1024B00020480690401827490791895C89004058B8
:1024C0008047049B059A069807991B78D218927842
:1024D000D300C018895C89004058804716480078AE
:1024E000C00700281FD0FFE710480090017810486F
:1024F000019040180279D1000E4802904018154909
:102500000391895C890040588047009B019A02989A
:1025100003991B78D2189279D300C018895C89007E
:1025200040588047FFE708B080BDC046F800002053
:10253000B4280000100000205800002081B001469F
:102540006846017002780349885C434258418854C8
:1025500001B07047F90000201D490868202210438F
:1025600008607047114820220260194908689043AA
:1025700008607047164908682022104308607047B9
:102580001248202202601249086890430860704790
:102590000F490868402210430860704703484022F2
:1025A00002600B4908689043086070475801004872
:1025B00007490868402210430860704703484022DA
:1025C0000260034908689043086070475C01004856
:1025D0000001004880B582B00020019012480068D8
:1025E00080471248006880471148006880471148BA
:1025F000006880471048006880471048006880479E
:102600000F4800688047FFE70948406880470A484C
:1026100040688047074840688047084840688047CE
:10262000074840688047EFE7242700003427000070
:102630009C260000C0260000A8260000B42600004A
:10264000CC26000084B00390029101A900200870FC
:102650000090FFE70098029988420CD2FFE70398A8
:102660000099415C0198401801A90870FFE70098A3
:10267000401C0090EEE701A8007804B0704702E02B
:1026800008C8121F08C1002AFAD1704770470020FD
:1026900001E001C1121F002AFBD170472D16000076
:1026A000591D00003D22000011160000BD1600005B
:1026B0000922000059160000E11D0000552200000B
:1026C0001D160000A9170000252200008D1600002D
:1026D000951F00007122000005150000F521000083
:1026E00085220000ED040000D9040000A30A0000C8
:1026F0008D0A0000B90A0000750A000021140000CC
:10270000A92100005114000061200000F523000001
:10271000952400006D240000592400003D25000090
:1027200081240000DD130000C9130000B51400006F
:10273000FD20000013140000D11300000D13000051
:10274000FD120000400000000000004801020000EF
:102750000000000000000000080000000001004828
:102760000102000000000000000000000400000062
:10277000000100480102000000000000000000000D
:102780000000000001000000000100000101000045
:102790000000010100010101010001010000000031
:1027A0000000010001000100000000010101010121
:1027B0000001000101000001010100010001010010
:1027C00010000000010000000200000003000000F3
:1027D00004000000050000000600000007000000E3
:1027E00008000000090000000A0000000B000000C3
:1027F0000C0000000D0000000E0000000F000000A3
:102800001000000000000048000000000000000070
:102810000000000020000000000000480000000050
:10282000000000000000000010000000000100484F
:102830000000000000000000000000000800000090
:10284000000000480102000000000000000000003D
:10285000020000000001004801020000000000002A
:10286000000000000100000000010048010200001B
:10287000000000000000000004000000000000480C
:102880000102000000000000000000000200000043
:1028900000000048000200000000000000000000EE
:1028A00001000000000000480002000000000000DD
:1028B0000000000000010203040506072E2E2F6D04
:1028C00063755F6C69622F7372632F637733326C49
:1028D0003031305F666C6173682E63002E2E2F6D71
:1028E00063755F6C69622F7372632F637733326C29
:1028F0003031305F7379736374726C2E6300000043
:10290000200000000001004800020000000000005C
:10291000000000004000000000010048000200002C
:102920000000000000000000482900000000002016
:10293000580000007E260000A0290000580000205A
:10294000B00400008E26000000093D00E7120000E0
:1029500001010000640000005D2300006D23000001
:102960008123000091230000A5230000B52300006F
:10297000CD230000DD23000059250000652500005F
:102980007525000081250000912500009D2500008F
:10299000B1250000BD25000001000000040000007A
:04000005000000C136
:00000001FF
